{"contracts/FileStorage.sol":{"FileStorage":{"abi":[{"anonymous":false,"inputs":[{"indexed":true,"internalType":"bytes32","name":"fileId","type":"bytes32"},{"indexed":false,"internalType":"address","name":"from","type":"address"},{"indexed":false,"internalType":"address","name":"to","type":"address"}],"name":"FileShared","type":"event"},{"anonymous":false,"inputs":[{"indexed":true,"internalType":"bytes32","name":"fileId","type":"bytes32"},{"indexed":false,"internalType":"address","name":"uploader","type":"address"},{"indexed":false,"internalType":"uint256","name":"shards","type":"uint256"}],"name":"FileUploaded","type":"event"},{"anonymous":false,"inputs":[{"indexed":true,"internalType":"bytes32","name":"fileId","type":"bytes32"},{"indexed":false,"internalType":"address","name":"verifier","type":"address"}],"name":"FileVerified","type":"event"},{"anonymous":false,"inputs":[{"indexed":true,"internalType":"address","name":"recipient","type":"address"},{"indexed":false,"internalType":"uint256","name":"amount","type":"uint256"}],"name":"RewardPaid","type":"event"},{"stateMutability":"payable","type":"fallback"},{"inputs":[],"name":"MIN_NODES","outputs":[{"internalType":"uint256","name":"","type":"uint256"}],"stateMutability":"view","type":"function"},{"inputs":[],"name":"REWARD_PER_SHARD","outputs":[{"internalType":"uint256","name":"","type":"uint256"}],"stateMutability":"view","type":"function"},{"inputs":[],"name":"SHARD_SIZE","outputs":[{"internalType":"uint256","name":"","type":"uint256"}],"stateMutability":"view","type":"function"},{"inputs":[],"name":"claimRewards","outputs":[],"stateMutability":"nonpayable","type":"function"},{"inputs":[{"internalType":"bytes32","name":"","type":"bytes32"}],"name":"files","outputs":[{"internalType":"bytes32","name":"merkleRoot","type":"bytes32"},{"internalType":"uint256","name":"size","type":"uint256"},{"internalType":"uint256","name":"timestamp","type":"uint256"},{"internalType":"address","name":"uploader","type":"address"}],"stateMutability":"view","type":"function"},{"inputs":[{"internalType":"bytes32","name":"fileId","type":"bytes32"}],"name":"getFileDetails","outputs":[{"components":[{"internalType":"bytes32","name":"merkleRoot","type":"bytes32"},{"internalType":"uint256","name":"size","type":"uint256"},{"internalType":"uint256","name":"timestamp","type":"uint256"},{"internalType":"address","name":"uploader","type":"address"},{"internalType":"string[]","name":"shardHashes","type":"string[]"}],"internalType":"struct FileStorage.FileData","name":"","type":"tuple"}],"stateMutability":"view","type":"function"},{"inputs":[{"internalType":"address","name":"user","type":"address"}],"name":"getUserFiles","outputs":[{"internalType":"bytes32[]","name":"","type":"bytes32[]"}],"stateMutability":"view","type":"function"},{"inputs":[{"internalType":"bytes32","name":"fileId","type":"bytes32"},{"internalType":"address","name":"recipient","type":"address"}],"name":"shareFile","outputs":[],"stateMutability":"nonpayable","type":"function"},{"inputs":[{"internalType":"bytes32","name":"merkleRoot","type":"bytes32"},{"internalType":"uint256","name":"size","type":"uint256"},{"internalType":"string[]","name":"shardHashes","type":"string[]"}],"name":"uploadFile","outputs":[],"stateMutability":"nonpayable","type":"function"},{"inputs":[{"internalType":"address","name":"","type":"address"},{"internalType":"uint256","name":"","type":"uint256"}],"name":"userFiles","outputs":[{"internalType":"bytes32","name":"","type":"bytes32"}],"stateMutability":"view","type":"function"},{"inputs":[{"internalType":"address","name":"","type":"address"}],"name":"userRewards","outputs":[{"internalType":"uint256","name":"","type":"uint256"}],"stateMutability":"view","type":"function"},{"inputs":[{"internalType":"bytes32","name":"fileId","type":"bytes32"},{"internalType":"bytes32[]","name":"proof","type":"bytes32[]"}],"name":"verifyFile","outputs":[],"stateMutability":"nonpayable","type":"function"},{"stateMutability":"payable","type":"receive"}],"evm":{"bytecode":{"linkReferences":{},"object":"608060405234801561001057600080fd5b50612103806100206000396000f3fe6080604052600436106100ab5760003560e01c806350f28d031161006457806350f28d03146101c2578063565b6f40146101eb5780635b39515914610216578063718f38a61461025357806398c9adff146102905780639e690271146102d0576100b2565b80630660f1e8146100b457806310e51565146100f15780631fc379221461011a57806325c211dc14610157578063372500ab146101805780634f58968c14610197576100b2565b366100b257005b005b3480156100c057600080fd5b506100db60048036038101906100d69190610f8f565b6102fb565b6040516100e89190610fd5565b60405180910390f35b3480156100fd57600080fd5b5061011860048036038101906101139190611026565b610313565b005b34801561012657600080fd5b50610141600480360381019061013c9190610f8f565b6104c9565b60405161014e9190611124565b60405180910390f35b34801561016357600080fd5b5061017e6004803603810190610179919061139e565b610560565b005b34801561018c57600080fd5b50610195610801565b005b3480156101a357600080fd5b506101ac610965565b6040516101b99190610fd5565b60405180910390f35b3480156101ce57600080fd5b506101e960048036038101906101e491906114d0565b61096c565b005b3480156101f757600080fd5b50610200610ac3565b60405161020d9190610fd5565b60405180910390f35b34801561022257600080fd5b5061023d6004803603810190610238919061152c565b610acf565b60405161024a919061172e565b60405180910390f35b34801561025f57600080fd5b5061027a60048036038101906102759190611750565b610ca0565b604051610287919061179f565b60405180910390f35b34801561029c57600080fd5b506102b760048036038101906102b2919061152c565b610cd1565b6040516102c794939291906117c9565b60405180910390f35b3480156102dc57600080fd5b506102e5610d21565b6040516102f29190610fd5565b60405180910390f35b60016020528060005260406000206000915090505481565b3373ffffffffffffffffffffffffffffffffffffffff1660008084815260200190815260200160002060030160009054906101000a900473ffffffffffffffffffffffffffffffffffffffff1673ffffffffffffffffffffffffffffffffffffffff16146103b6576040517f08c379a00000000000000000000000000000000000000000000000000000000081526004016103ad9061186b565b60405180910390fd5b600073ffffffffffffffffffffffffffffffffffffffff168173ffffffffffffffffffffffffffffffffffffffff1603610425576040517f08c379a000000000000000000000000000000000000000000000000000000000815260040161041c906118d7565b60405180910390fd5b600260008273ffffffffffffffffffffffffffffffffffffffff1673ffffffffffffffffffffffffffffffffffffffff168152602001908152602001600020829080600181540180825580915050600190039060005260206000200160009091909190915055817f7eaae5561b99c52aa935c7718653858a2708e6422f302150625e40234db3a39133836040516104bd9291906118f7565b60405180910390a25050565b6060600260008373ffffffffffffffffffffffffffffffffffffffff1673ffffffffffffffffffffffffffffffffffffffff16815260200190815260200160002080548060200260200160405190810160405280929190818152602001828054801561055457602002820191906000526020600020905b815481526020019060010190808311610540575b50505050509050919050565b600082116105a3576040517f08c379a000000000000000000000000000000000000000000000000000000000815260040161059a9061196c565b60405180910390fd5b60008151116105e7576040517f08c379a00000000000000000000000000000000000000000000000000000000081526004016105de906119d8565b60405180910390fd5b60008333426040516020016105fe93929190611a82565b6040516020818303038152906040528051906020012090506040518060a001604052808581526020018481526020014281526020013373ffffffffffffffffffffffffffffffffffffffff1681526020018381525060008083815260200190815260200160002060008201518160000155602082015181600101556040820151816002015560608201518160030160006101000a81548173ffffffffffffffffffffffffffffffffffffffff021916908373ffffffffffffffffffffffffffffffffffffffff16021790555060808201518160040190805190602001906106e6929190610dfb565b50905050600260003373ffffffffffffffffffffffffffffffffffffffff1673ffffffffffffffffffffffffffffffffffffffff1681526020019081526020016000208190806001815401808255809150506001900390600052602060002001600090919091909150556000670de0b6b3a764000083516107679190611aee565b905080600160003373ffffffffffffffffffffffffffffffffffffffff1673ffffffffffffffffffffffffffffffffffffffff16815260200190815260200160002060008282546107b89190611b30565b92505081905550817fec5b0fb96b721769d24b11776516c6ace293db81d43459eca4486b56b6f91cb33385516040516107f2929190611b64565b60405180910390a25050505050565b6000600160003373ffffffffffffffffffffffffffffffffffffffff1673ffffffffffffffffffffffffffffffffffffffff16815260200190815260200160002054905060008111610888576040517f08c379a000000000000000000000000000000000000000000000000000000000815260040161087f90611bd9565b60405180910390fd5b6000600160003373ffffffffffffffffffffffffffffffffffffffff1673ffffffffffffffffffffffffffffffffffffffff168152602001908152602001600020819055503373ffffffffffffffffffffffffffffffffffffffff166108fc829081150290604051600060405180830381858888f19350505050158015610913573d6000803e3d6000fd5b503373ffffffffffffffffffffffffffffffffffffffff167fe2403640ba68fed3a2f88b7557551d1993f84b99bb10ff833f0cf8db0c5e04868260405161095a9190610fd5565b60405180910390a250565b6201900081565b6000806000848152602001908152602001600020905060008160020154116109c9576040517f08c379a00000000000000000000000000000000000000000000000000000000081526004016109c090611c45565b60405180910390fd5b6109d7828260000154610d26565b610a16576040517f08c379a0000000000000000000000000000000000000000000000000000000008152600401610a0d90611cb1565b60405180910390fd5b6000600a670de0b6b3a7640000610a2d9190611d00565b905080600160003373ffffffffffffffffffffffffffffffffffffffff1673ffffffffffffffffffffffffffffffffffffffff1681526020019081526020016000206000828254610a7e9190611b30565b92505081905550837f6fcb755b7288a61f09eb609abdbb64fa31e02ef0ccdb2d8e823e051fe4e6ada533604051610ab59190611d31565b60405180910390a250505050565b670de0b6b3a764000081565b610ad7610e54565b60008060008481526020019081526020016000206002015411610b2f576040517f08c379a0000000000000000000000000000000000000000000000000000000008152600401610b2690611c45565b60405180910390fd5b6000808381526020019081526020016000206040518060a00160405290816000820154815260200160018201548152602001600282015481526020016003820160009054906101000a900473ffffffffffffffffffffffffffffffffffffffff1673ffffffffffffffffffffffffffffffffffffffff1673ffffffffffffffffffffffffffffffffffffffff16815260200160048201805480602002602001604051908101604052809291908181526020016000905b82821015610c91578382906000526020600020018054610c0490611d7b565b80601f0160208091040260200160405190810160405280929190818152602001828054610c3090611d7b565b8015610c7d5780601f10610c5257610100808354040283529160200191610c7d565b820191906000526020600020905b815481529060010190602001808311610c6057829003601f168201915b505050505081526020019060010190610be5565b50505050815250509050919050565b60026020528160005260406000208181548110610cbc57600080fd5b90600052602060002001600091509150505481565b60006020528060005260406000206000915090508060000154908060010154908060020154908060030160009054906101000a900473ffffffffffffffffffffffffffffffffffffffff16905084565b600381565b60008083600081518110610d3d57610d3c611dac565b5b602002602001015190506000600190505b8451811015610dee576000858281518110610d6c57610d6b611dac565b5b6020026020010151905080831015610dae578281604051602001610d91929190611ddb565b604051602081830303815290604052805190602001209250610dda565b8083604051602001610dc1929190611ddb565b6040516020818303038152906040528051906020012092505b508080610de690611e07565b915050610d4e565b5082811491505092915050565b828054828255906000526020600020908101928215610e43579160200282015b82811115610e42578251829081610e329190611ffb565b5091602001919060010190610e1b565b5b509050610e509190610e9c565b5090565b6040518060a00160405280600080191681526020016000815260200160008152602001600073ffffffffffffffffffffffffffffffffffffffff168152602001606081525090565b5b80821115610ebc5760008181610eb39190610ec0565b50600101610e9d565b5090565b508054610ecc90611d7b565b6000825580601f10610ede5750610efd565b601f016020900490600052602060002090810190610efc9190610f00565b5b50565b5b80821115610f19576000816000905550600101610f01565b5090565b6000604051905090565b600080fd5b600080fd5b600073ffffffffffffffffffffffffffffffffffffffff82169050919050565b6000610f5c82610f31565b9050919050565b610f6c81610f51565b8114610f7757600080fd5b50565b600081359050610f8981610f63565b92915050565b600060208284031215610fa557610fa4610f27565b5b6000610fb384828501610f7a565b91505092915050565b6000819050919050565b610fcf81610fbc565b82525050565b6000602082019050610fea6000830184610fc6565b92915050565b6000819050919050565b61100381610ff0565b811461100e57600080fd5b50565b60008135905061102081610ffa565b92915050565b6000806040838503121561103d5761103c610f27565b5b600061104b85828601611011565b925050602061105c85828601610f7a565b9150509250929050565b600081519050919050565b600082825260208201905092915050565b6000819050602082019050919050565b61109b81610ff0565b82525050565b60006110ad8383611092565b60208301905092915050565b6000602082019050919050565b60006110d182611066565b6110db8185611071565b93506110e683611082565b8060005b838110156111175781516110fe88826110a1565b9750611109836110b9565b9250506001810190506110ea565b5085935050505092915050565b6000602082019050818103600083015261113e81846110c6565b905092915050565b61114f81610fbc565b811461115a57600080fd5b50565b60008135905061116c81611146565b92915050565b600080fd5b6000601f19601f8301169050919050565b7f4e487b7100000000000000000000000000000000000000000000000000000000600052604160045260246000fd5b6111c082611177565b810181811067ffffffffffffffff821117156111df576111de611188565b5b80604052505050565b60006111f2610f1d565b90506111fe82826111b7565b919050565b600067ffffffffffffffff82111561121e5761121d611188565b5b602082029050602081019050919050565b600080fd5b600080fd5b600067ffffffffffffffff82111561125457611253611188565b5b61125d82611177565b9050602081019050919050565b82818337600083830152505050565b600061128c61128784611239565b6111e8565b9050828152602081018484840111156112a8576112a7611234565b5b6112b384828561126a565b509392505050565b600082601f8301126112d0576112cf611172565b5b81356112e0848260208601611279565b91505092915050565b60006112fc6112f784611203565b6111e8565b9050808382526020820190506020840283018581111561131f5761131e61122f565b5b835b8181101561136657803567ffffffffffffffff81111561134457611343611172565b5b80860161135189826112bb565b85526020850194505050602081019050611321565b5050509392505050565b600082601f83011261138557611384611172565b5b81356113958482602086016112e9565b91505092915050565b6000806000606084860312156113b7576113b6610f27565b5b60006113c586828701611011565b93505060206113d68682870161115d565b925050604084013567ffffffffffffffff8111156113f7576113f6610f2c565b5b61140386828701611370565b9150509250925092565b600067ffffffffffffffff82111561142857611427611188565b5b602082029050602081019050919050565b600061144c6114478461140d565b6111e8565b9050808382526020820190506020840283018581111561146f5761146e61122f565b5b835b8181101561149857806114848882611011565b845260208401935050602081019050611471565b5050509392505050565b600082601f8301126114b7576114b6611172565b5b81356114c7848260208601611439565b91505092915050565b600080604083850312156114e7576114e6610f27565b5b60006114f585828601611011565b925050602083013567ffffffffffffffff81111561151657611515610f2c565b5b611522858286016114a2565b9150509250929050565b60006020828403121561154257611541610f27565b5b600061155084828501611011565b91505092915050565b61156281610fbc565b82525050565b61157181610f51565b82525050565b600081519050919050565b600082825260208201905092915050565b6000819050602082019050919050565b600081519050919050565b600082825260208201905092915050565b60005b838110156115dd5780820151818401526020810190506115c2565b60008484015250505050565b60006115f4826115a3565b6115fe81856115ae565b935061160e8185602086016115bf565b61161781611177565b840191505092915050565b600061162e83836115e9565b905092915050565b6000602082019050919050565b600061164e82611577565b6116588185611582565b93508360208202850161166a85611593565b8060005b858110156116a657848403895281516116878582611622565b945061169283611636565b925060208a0199505060018101905061166e565b50829750879550505050505092915050565b600060a0830160008301516116d06000860182611092565b5060208301516116e36020860182611559565b5060408301516116f66040860182611559565b5060608301516117096060860182611568565b50608083015184820360808601526117218282611643565b9150508091505092915050565b6000602082019050818103600083015261174881846116b8565b905092915050565b6000806040838503121561176757611766610f27565b5b600061177585828601610f7a565b92505060206117868582860161115d565b9150509250929050565b61179981610ff0565b82525050565b60006020820190506117b46000830184611790565b92915050565b6117c381610f51565b82525050565b60006080820190506117de6000830187611790565b6117eb6020830186610fc6565b6117f86040830185610fc6565b61180560608301846117ba565b95945050505050565b600082825260208201905092915050565b7f4e6f742066696c65206f776e6572000000000000000000000000000000000000600082015250565b6000611855600e8361180e565b91506118608261181f565b602082019050919050565b6000602082019050818103600083015261188481611848565b9050919050565b7f496e76616c696420726563697069656e74000000000000000000000000000000600082015250565b60006118c160118361180e565b91506118cc8261188b565b602082019050919050565b600060208201905081810360008301526118f0816118b4565b9050919050565b600060408201905061190c60008301856117ba565b61191960208301846117ba565b9392505050565b7f46696c652073697a65206d75737420626520706f736974697665000000000000600082015250565b6000611956601a8361180e565b915061196182611920565b602082019050919050565b6000602082019050818103600083015261198581611949565b9050919050565b7f4d7573742068617665206174206c65617374206f6e6520736861726400000000600082015250565b60006119c2601c8361180e565b91506119cd8261198c565b602082019050919050565b600060208201905081810360008301526119f1816119b5565b9050919050565b6000819050919050565b611a13611a0e82610ff0565b6119f8565b82525050565b60008160601b9050919050565b6000611a3182611a19565b9050919050565b6000611a4382611a26565b9050919050565b611a5b611a5682610f51565b611a38565b82525050565b6000819050919050565b611a7c611a7782610fbc565b611a61565b82525050565b6000611a8e8286611a02565b602082019150611a9e8285611a4a565b601482019150611aae8284611a6b565b602082019150819050949350505050565b7f4e487b7100000000000000000000000000000000000000000000000000000000600052601160045260246000fd5b6000611af982610fbc565b9150611b0483610fbc565b9250828202611b1281610fbc565b91508282048414831517611b2957611b28611abf565b5b5092915050565b6000611b3b82610fbc565b9150611b4683610fbc565b9250828201905080821115611b5e57611b5d611abf565b5b92915050565b6000604082019050611b7960008301856117ba565b611b866020830184610fc6565b9392505050565b7f4e6f207265776172647320746f20636c61696d00000000000000000000000000600082015250565b6000611bc360138361180e565b9150611bce82611b8d565b602082019050919050565b60006020820190508181036000830152611bf281611bb6565b9050919050565b7f46696c6520646f6573206e6f7420657869737400000000000000000000000000600082015250565b6000611c2f60138361180e565b9150611c3a82611bf9565b602082019050919050565b60006020820190508181036000830152611c5e81611c22565b9050919050565b7f496e76616c6964206d65726b6c652070726f6f66000000000000000000000000600082015250565b6000611c9b60148361180e565b9150611ca682611c65565b602082019050919050565b60006020820190508181036000830152611cca81611c8e565b9050919050565b7f4e487b7100000000000000000000000000000000000000000000000000000000600052601260045260246000fd5b6000611d0b82610fbc565b9150611d1683610fbc565b925082611d2657611d25611cd1565b5b828204905092915050565b6000602082019050611d4660008301846117ba565b92915050565b7f4e487b7100000000000000000000000000000000000000000000000000000000600052602260045260246000fd5b60006002820490506001821680611d9357607f821691505b602082108103611da657611da5611d4c565b5b50919050565b7f4e487b7100000000000000000000000000000000000000000000000000000000600052603260045260246000fd5b6000611de78285611a02565b602082019150611df78284611a02565b6020820191508190509392505050565b6000611e1282610fbc565b91507fffffffffffffffffffffffffffffffffffffffffffffffffffffffffffffffff8203611e4457611e43611abf565b5b600182019050919050565b60008190508160005260206000209050919050565b60006020601f8301049050919050565b600082821b905092915050565b600060088302611eb17fffffffffffffffffffffffffffffffffffffffffffffffffffffffffffffffff82611e74565b611ebb8683611e74565b95508019841693508086168417925050509392505050565b6000819050919050565b6000611ef8611ef3611eee84610fbc565b611ed3565b610fbc565b9050919050565b6000819050919050565b611f1283611edd565b611f26611f1e82611eff565b848454611e81565b825550505050565b600090565b611f3b611f2e565b611f46818484611f09565b505050565b5b81811015611f6a57611f5f600082611f33565b600181019050611f4c565b5050565b601f821115611faf57611f8081611e4f565b611f8984611e64565b81016020851015611f98578190505b611fac611fa485611e64565b830182611f4b565b50505b505050565b600082821c905092915050565b6000611fd260001984600802611fb4565b1980831691505092915050565b6000611feb8383611fc1565b9150826002028217905092915050565b612004826115a3565b67ffffffffffffffff81111561201d5761201c611188565b5b6120278254611d7b565b612032828285611f6e565b600060209050601f8311600181146120655760008415612053578287015190505b61205d8582611fdf565b8655506120c5565b601f19841661207386611e4f565b60005b8281101561209b57848901518255600182019150602085019450602081019050612076565b868310156120b857848901516120b4601f891682611fc1565b8355505b6001600288020188555050505b50505050505056fea26469706673582212208bc5aca9220562f293a3192a448f3f73f7d9cac58a01f68251d25a255c38812664736f6c63430008140033","opcodes":"PUSH1 0x80 PUSH1 0x40 MSTORE CALLVALUE DUP1 ISZERO PUSH2 0x10 JUMPI PUSH1 0x0 DUP1 REVERT JUMPDEST POP PUSH2 0x2103 DUP1 PUSH2 0x20 PUSH1 0x0 CODECOPY PUSH1 0x0 RETURN INVALID PUSH1 0x80 PUSH1 0x40 MSTORE PUSH1 0x4 CALLDATASIZE LT PUSH2 0xAB JUMPI PUSH1 0x0 CALLDATALOAD PUSH1 0xE0 SHR DUP1 PUSH4 0x50F28D03 GT PUSH2 0x64 JUMPI DUP1 PUSH4 0x50F28D03 EQ PUSH2 0x1C2 JUMPI DUP1 PUSH4 0x565B6F40 EQ PUSH2 0x1EB JUMPI DUP1 PUSH4 0x5B395159 EQ PUSH2 0x216 JUMPI DUP1 PUSH4 0x718F38A6 EQ PUSH2 0x253 JUMPI DUP1 PUSH4 0x98C9ADFF EQ PUSH2 0x290 JUMPI DUP1 PUSH4 0x9E690271 EQ PUSH2 0x2D0 JUMPI PUSH2 0xB2 JUMP JUMPDEST DUP1 PUSH4 0x660F1E8 EQ PUSH2 0xB4 JUMPI DUP1 PUSH4 0x10E51565 EQ PUSH2 0xF1 JUMPI DUP1 PUSH4 0x1FC37922 EQ PUSH2 0x11A JUMPI DUP1 PUSH4 0x25C211DC EQ PUSH2 0x157 JUMPI DUP1 PUSH4 0x372500AB EQ PUSH2 0x180 JUMPI DUP1 PUSH4 0x4F58968C EQ PUSH2 0x197 JUMPI PUSH2 0xB2 JUMP JUMPDEST CALLDATASIZE PUSH2 0xB2 JUMPI STOP JUMPDEST STOP JUMPDEST CALLVALUE DUP1 ISZERO PUSH2 0xC0 JUMPI PUSH1 0x0 DUP1 REVERT JUMPDEST POP PUSH2 0xDB PUSH1 0x4 DUP1 CALLDATASIZE SUB DUP2 ADD SWAP1 PUSH2 0xD6 SWAP2 SWAP1 PUSH2 0xF8F JUMP JUMPDEST PUSH2 0x2FB JUMP JUMPDEST PUSH1 0x40 MLOAD PUSH2 0xE8 SWAP2 SWAP1 PUSH2 0xFD5 JUMP JUMPDEST PUSH1 0x40 MLOAD DUP1 SWAP2 SUB SWAP1 RETURN JUMPDEST CALLVALUE DUP1 ISZERO PUSH2 0xFD JUMPI PUSH1 0x0 DUP1 REVERT JUMPDEST POP PUSH2 0x118 PUSH1 0x4 DUP1 CALLDATASIZE SUB DUP2 ADD SWAP1 PUSH2 0x113 SWAP2 SWAP1 PUSH2 0x1026 JUMP JUMPDEST PUSH2 0x313 JUMP JUMPDEST STOP JUMPDEST CALLVALUE DUP1 ISZERO PUSH2 0x126 JUMPI PUSH1 0x0 DUP1 REVERT JUMPDEST POP PUSH2 0x141 PUSH1 0x4 DUP1 CALLDATASIZE SUB DUP2 ADD SWAP1 PUSH2 0x13C SWAP2 SWAP1 PUSH2 0xF8F JUMP JUMPDEST PUSH2 0x4C9 JUMP JUMPDEST PUSH1 0x40 MLOAD PUSH2 0x14E SWAP2 SWAP1 PUSH2 0x1124 JUMP JUMPDEST PUSH1 0x40 MLOAD DUP1 SWAP2 SUB SWAP1 RETURN JUMPDEST CALLVALUE DUP1 ISZERO PUSH2 0x163 JUMPI PUSH1 0x0 DUP1 REVERT JUMPDEST POP PUSH2 0x17E PUSH1 0x4 DUP1 CALLDATASIZE SUB DUP2 ADD SWAP1 PUSH2 0x179 SWAP2 SWAP1 PUSH2 0x139E JUMP JUMPDEST PUSH2 0x560 JUMP JUMPDEST STOP JUMPDEST CALLVALUE DUP1 ISZERO PUSH2 0x18C JUMPI PUSH1 0x0 DUP1 REVERT JUMPDEST POP PUSH2 0x195 PUSH2 0x801 JUMP JUMPDEST STOP JUMPDEST CALLVALUE DUP1 ISZERO PUSH2 0x1A3 JUMPI PUSH1 0x0 DUP1 REVERT JUMPDEST POP PUSH2 0x1AC PUSH2 0x965 JUMP JUMPDEST PUSH1 0x40 MLOAD PUSH2 0x1B9 SWAP2 SWAP1 PUSH2 0xFD5 JUMP JUMPDEST PUSH1 0x40 MLOAD DUP1 SWAP2 SUB SWAP1 RETURN JUMPDEST CALLVALUE DUP1 ISZERO PUSH2 0x1CE JUMPI PUSH1 0x0 DUP1 REVERT JUMPDEST POP PUSH2 0x1E9 PUSH1 0x4 DUP1 CALLDATASIZE SUB DUP2 ADD SWAP1 PUSH2 0x1E4 SWAP2 SWAP1 PUSH2 0x14D0 JUMP JUMPDEST PUSH2 0x96C JUMP JUMPDEST STOP JUMPDEST CALLVALUE DUP1 ISZERO PUSH2 0x1F7 JUMPI PUSH1 0x0 DUP1 REVERT JUMPDEST POP PUSH2 0x200 PUSH2 0xAC3 JUMP JUMPDEST PUSH1 0x40 MLOAD PUSH2 0x20D SWAP2 SWAP1 PUSH2 0xFD5 JUMP JUMPDEST PUSH1 0x40 MLOAD DUP1 SWAP2 SUB SWAP1 RETURN JUMPDEST CALLVALUE DUP1 ISZERO PUSH2 0x222 JUMPI PUSH1 0x0 DUP1 REVERT JUMPDEST POP PUSH2 0x23D PUSH1 0x4 DUP1 CALLDATASIZE SUB DUP2 ADD SWAP1 PUSH2 0x238 SWAP2 SWAP1 PUSH2 0x152C JUMP JUMPDEST PUSH2 0xACF JUMP JUMPDEST PUSH1 0x40 MLOAD PUSH2 0x24A SWAP2 SWAP1 PUSH2 0x172E JUMP JUMPDEST PUSH1 0x40 MLOAD DUP1 SWAP2 SUB SWAP1 RETURN JUMPDEST CALLVALUE DUP1 ISZERO PUSH2 0x25F JUMPI PUSH1 0x0 DUP1 REVERT JUMPDEST POP PUSH2 0x27A PUSH1 0x4 DUP1 CALLDATASIZE SUB DUP2 ADD SWAP1 PUSH2 0x275 SWAP2 SWAP1 PUSH2 0x1750 JUMP JUMPDEST PUSH2 0xCA0 JUMP JUMPDEST PUSH1 0x40 MLOAD PUSH2 0x287 SWAP2 SWAP1 PUSH2 0x179F JUMP JUMPDEST PUSH1 0x40 MLOAD DUP1 SWAP2 SUB SWAP1 RETURN JUMPDEST CALLVALUE DUP1 ISZERO PUSH2 0x29C JUMPI PUSH1 0x0 DUP1 REVERT JUMPDEST POP PUSH2 0x2B7 PUSH1 0x4 DUP1 CALLDATASIZE SUB DUP2 ADD SWAP1 PUSH2 0x2B2 SWAP2 SWAP1 PUSH2 0x152C JUMP JUMPDEST PUSH2 0xCD1 JUMP JUMPDEST PUSH1 0x40 MLOAD PUSH2 0x2C7 SWAP5 SWAP4 SWAP3 SWAP2 SWAP1 PUSH2 0x17C9 JUMP JUMPDEST PUSH1 0x40 MLOAD DUP1 SWAP2 SUB SWAP1 RETURN JUMPDEST CALLVALUE DUP1 ISZERO PUSH2 0x2DC JUMPI PUSH1 0x0 DUP1 REVERT JUMPDEST POP PUSH2 0x2E5 PUSH2 0xD21 JUMP JUMPDEST PUSH1 0x40 MLOAD PUSH2 0x2F2 SWAP2 SWAP1 PUSH2 0xFD5 JUMP JUMPDEST PUSH1 0x40 MLOAD DUP1 SWAP2 SUB SWAP1 RETURN JUMPDEST PUSH1 0x1 PUSH1 0x20 MSTORE DUP1 PUSH1 0x0 MSTORE PUSH1 0x40 PUSH1 0x0 KECCAK256 PUSH1 0x0 SWAP2 POP SWAP1 POP SLOAD DUP2 JUMP JUMPDEST CALLER PUSH20 0xFFFFFFFFFFFFFFFFFFFFFFFFFFFFFFFFFFFFFFFF AND PUSH1 0x0 DUP1 DUP5 DUP2 MSTORE PUSH1 0x20 ADD SWAP1 DUP2 MSTORE PUSH1 0x20 ADD PUSH1 0x0 KECCAK256 PUSH1 0x3 ADD PUSH1 0x0 SWAP1 SLOAD SWAP1 PUSH2 0x100 EXP SWAP1 DIV PUSH20 0xFFFFFFFFFFFFFFFFFFFFFFFFFFFFFFFFFFFFFFFF AND PUSH20 0xFFFFFFFFFFFFFFFFFFFFFFFFFFFFFFFFFFFFFFFF AND EQ PUSH2 0x3B6 JUMPI PUSH1 0x40 MLOAD PUSH32 0x8C379A000000000000000000000000000000000000000000000000000000000 DUP2 MSTORE PUSH1 0x4 ADD PUSH2 0x3AD SWAP1 PUSH2 0x186B JUMP JUMPDEST PUSH1 0x40 MLOAD DUP1 SWAP2 SUB SWAP1 REVERT JUMPDEST PUSH1 0x0 PUSH20 0xFFFFFFFFFFFFFFFFFFFFFFFFFFFFFFFFFFFFFFFF AND DUP2 PUSH20 0xFFFFFFFFFFFFFFFFFFFFFFFFFFFFFFFFFFFFFFFF AND SUB PUSH2 0x425 JUMPI PUSH1 0x40 MLOAD PUSH32 0x8C379A000000000000000000000000000000000000000000000000000000000 DUP2 MSTORE PUSH1 0x4 ADD PUSH2 0x41C SWAP1 PUSH2 0x18D7 JUMP JUMPDEST PUSH1 0x40 MLOAD DUP1 SWAP2 SUB SWAP1 REVERT JUMPDEST PUSH1 0x2 PUSH1 0x0 DUP3 PUSH20 0xFFFFFFFFFFFFFFFFFFFFFFFFFFFFFFFFFFFFFFFF AND PUSH20 0xFFFFFFFFFFFFFFFFFFFFFFFFFFFFFFFFFFFFFFFF AND DUP2 MSTORE PUSH1 0x20 ADD SWAP1 DUP2 MSTORE PUSH1 0x20 ADD PUSH1 0x0 KECCAK256 DUP3 SWAP1 DUP1 PUSH1 0x1 DUP2 SLOAD ADD DUP1 DUP3 SSTORE DUP1 SWAP2 POP POP PUSH1 0x1 SWAP1 SUB SWAP1 PUSH1 0x0 MSTORE PUSH1 0x20 PUSH1 0x0 KECCAK256 ADD PUSH1 0x0 SWAP1 SWAP2 SWAP1 SWAP2 SWAP1 SWAP2 POP SSTORE DUP2 PUSH32 0x7EAAE5561B99C52AA935C7718653858A2708E6422F302150625E40234DB3A391 CALLER DUP4 PUSH1 0x40 MLOAD PUSH2 0x4BD SWAP3 SWAP2 SWAP1 PUSH2 0x18F7 JUMP JUMPDEST PUSH1 0x40 MLOAD DUP1 SWAP2 SUB SWAP1 LOG2 POP POP JUMP JUMPDEST PUSH1 0x60 PUSH1 0x2 PUSH1 0x0 DUP4 PUSH20 0xFFFFFFFFFFFFFFFFFFFFFFFFFFFFFFFFFFFFFFFF AND PUSH20 0xFFFFFFFFFFFFFFFFFFFFFFFFFFFFFFFFFFFFFFFF AND DUP2 MSTORE PUSH1 0x20 ADD SWAP1 DUP2 MSTORE PUSH1 0x20 ADD PUSH1 0x0 KECCAK256 DUP1 SLOAD DUP1 PUSH1 0x20 MUL PUSH1 0x20 ADD PUSH1 0x40 MLOAD SWAP1 DUP2 ADD PUSH1 0x40 MSTORE DUP1 SWAP3 SWAP2 SWAP1 DUP2 DUP2 MSTORE PUSH1 0x20 ADD DUP3 DUP1 SLOAD DUP1 ISZERO PUSH2 0x554 JUMPI PUSH1 0x20 MUL DUP3 ADD SWAP2 SWAP1 PUSH1 0x0 MSTORE PUSH1 0x20 PUSH1 0x0 KECCAK256 SWAP1 JUMPDEST DUP2 SLOAD DUP2 MSTORE PUSH1 0x20 ADD SWAP1 PUSH1 0x1 ADD SWAP1 DUP1 DUP4 GT PUSH2 0x540 JUMPI JUMPDEST POP POP POP POP POP SWAP1 POP SWAP2 SWAP1 POP JUMP JUMPDEST PUSH1 0x0 DUP3 GT PUSH2 0x5A3 JUMPI PUSH1 0x40 MLOAD PUSH32 0x8C379A000000000000000000000000000000000000000000000000000000000 DUP2 MSTORE PUSH1 0x4 ADD PUSH2 0x59A SWAP1 PUSH2 0x196C JUMP JUMPDEST PUSH1 0x40 MLOAD DUP1 SWAP2 SUB SWAP1 REVERT JUMPDEST PUSH1 0x0 DUP2 MLOAD GT PUSH2 0x5E7 JUMPI PUSH1 0x40 MLOAD PUSH32 0x8C379A000000000000000000000000000000000000000000000000000000000 DUP2 MSTORE PUSH1 0x4 ADD PUSH2 0x5DE SWAP1 PUSH2 0x19D8 JUMP JUMPDEST PUSH1 0x40 MLOAD DUP1 SWAP2 SUB SWAP1 REVERT JUMPDEST PUSH1 0x0 DUP4 CALLER TIMESTAMP PUSH1 0x40 MLOAD PUSH1 0x20 ADD PUSH2 0x5FE SWAP4 SWAP3 SWAP2 SWAP1 PUSH2 0x1A82 JUMP JUMPDEST PUSH1 0x40 MLOAD PUSH1 0x20 DUP2 DUP4 SUB SUB DUP2 MSTORE SWAP1 PUSH1 0x40 MSTORE DUP1 MLOAD SWAP1 PUSH1 0x20 ADD KECCAK256 SWAP1 POP PUSH1 0x40 MLOAD DUP1 PUSH1 0xA0 ADD PUSH1 0x40 MSTORE DUP1 DUP6 DUP2 MSTORE PUSH1 0x20 ADD DUP5 DUP2 MSTORE PUSH1 0x20 ADD TIMESTAMP DUP2 MSTORE PUSH1 0x20 ADD CALLER PUSH20 0xFFFFFFFFFFFFFFFFFFFFFFFFFFFFFFFFFFFFFFFF AND DUP2 MSTORE PUSH1 0x20 ADD DUP4 DUP2 MSTORE POP PUSH1 0x0 DUP1 DUP4 DUP2 MSTORE PUSH1 0x20 ADD SWAP1 DUP2 MSTORE PUSH1 0x20 ADD PUSH1 0x0 KECCAK256 PUSH1 0x0 DUP3 ADD MLOAD DUP2 PUSH1 0x0 ADD SSTORE PUSH1 0x20 DUP3 ADD MLOAD DUP2 PUSH1 0x1 ADD SSTORE PUSH1 0x40 DUP3 ADD MLOAD DUP2 PUSH1 0x2 ADD SSTORE PUSH1 0x60 DUP3 ADD MLOAD DUP2 PUSH1 0x3 ADD PUSH1 0x0 PUSH2 0x100 EXP DUP2 SLOAD DUP2 PUSH20 0xFFFFFFFFFFFFFFFFFFFFFFFFFFFFFFFFFFFFFFFF MUL NOT AND SWAP1 DUP4 PUSH20 0xFFFFFFFFFFFFFFFFFFFFFFFFFFFFFFFFFFFFFFFF AND MUL OR SWAP1 SSTORE POP PUSH1 0x80 DUP3 ADD MLOAD DUP2 PUSH1 0x4 ADD SWAP1 DUP1 MLOAD SWAP1 PUSH1 0x20 ADD SWAP1 PUSH2 0x6E6 SWAP3 SWAP2 SWAP1 PUSH2 0xDFB JUMP JUMPDEST POP SWAP1 POP POP PUSH1 0x2 PUSH1 0x0 CALLER PUSH20 0xFFFFFFFFFFFFFFFFFFFFFFFFFFFFFFFFFFFFFFFF AND PUSH20 0xFFFFFFFFFFFFFFFFFFFFFFFFFFFFFFFFFFFFFFFF AND DUP2 MSTORE PUSH1 0x20 ADD SWAP1 DUP2 MSTORE PUSH1 0x20 ADD PUSH1 0x0 KECCAK256 DUP2 SWAP1 DUP1 PUSH1 0x1 DUP2 SLOAD ADD DUP1 DUP3 SSTORE DUP1 SWAP2 POP POP PUSH1 0x1 SWAP1 SUB SWAP1 PUSH1 0x0 MSTORE PUSH1 0x20 PUSH1 0x0 KECCAK256 ADD PUSH1 0x0 SWAP1 SWAP2 SWAP1 SWAP2 SWAP1 SWAP2 POP SSTORE PUSH1 0x0 PUSH8 0xDE0B6B3A7640000 DUP4 MLOAD PUSH2 0x767 SWAP2 SWAP1 PUSH2 0x1AEE JUMP JUMPDEST SWAP1 POP DUP1 PUSH1 0x1 PUSH1 0x0 CALLER PUSH20 0xFFFFFFFFFFFFFFFFFFFFFFFFFFFFFFFFFFFFFFFF AND PUSH20 0xFFFFFFFFFFFFFFFFFFFFFFFFFFFFFFFFFFFFFFFF AND DUP2 MSTORE PUSH1 0x20 ADD SWAP1 DUP2 MSTORE PUSH1 0x20 ADD PUSH1 0x0 KECCAK256 PUSH1 0x0 DUP3 DUP3 SLOAD PUSH2 0x7B8 SWAP2 SWAP1 PUSH2 0x1B30 JUMP JUMPDEST SWAP3 POP POP DUP2 SWAP1 SSTORE POP DUP2 PUSH32 0xEC5B0FB96B721769D24B11776516C6ACE293DB81D43459ECA4486B56B6F91CB3 CALLER DUP6 MLOAD PUSH1 0x40 MLOAD PUSH2 0x7F2 SWAP3 SWAP2 SWAP1 PUSH2 0x1B64 JUMP JUMPDEST PUSH1 0x40 MLOAD DUP1 SWAP2 SUB SWAP1 LOG2 POP POP POP POP POP JUMP JUMPDEST PUSH1 0x0 PUSH1 0x1 PUSH1 0x0 CALLER PUSH20 0xFFFFFFFFFFFFFFFFFFFFFFFFFFFFFFFFFFFFFFFF AND PUSH20 0xFFFFFFFFFFFFFFFFFFFFFFFFFFFFFFFFFFFFFFFF AND DUP2 MSTORE PUSH1 0x20 ADD SWAP1 DUP2 MSTORE PUSH1 0x20 ADD PUSH1 0x0 KECCAK256 SLOAD SWAP1 POP PUSH1 0x0 DUP2 GT PUSH2 0x888 JUMPI PUSH1 0x40 MLOAD PUSH32 0x8C379A000000000000000000000000000000000000000000000000000000000 DUP2 MSTORE PUSH1 0x4 ADD PUSH2 0x87F SWAP1 PUSH2 0x1BD9 JUMP JUMPDEST PUSH1 0x40 MLOAD DUP1 SWAP2 SUB SWAP1 REVERT JUMPDEST PUSH1 0x0 PUSH1 0x1 PUSH1 0x0 CALLER PUSH20 0xFFFFFFFFFFFFFFFFFFFFFFFFFFFFFFFFFFFFFFFF AND PUSH20 0xFFFFFFFFFFFFFFFFFFFFFFFFFFFFFFFFFFFFFFFF AND DUP2 MSTORE PUSH1 0x20 ADD SWAP1 DUP2 MSTORE PUSH1 0x20 ADD PUSH1 0x0 KECCAK256 DUP2 SWAP1 SSTORE POP CALLER PUSH20 0xFFFFFFFFFFFFFFFFFFFFFFFFFFFFFFFFFFFFFFFF AND PUSH2 0x8FC DUP3 SWAP1 DUP2 ISZERO MUL SWAP1 PUSH1 0x40 MLOAD PUSH1 0x0 PUSH1 0x40 MLOAD DUP1 DUP4 SUB DUP2 DUP6 DUP9 DUP9 CALL SWAP4 POP POP POP POP ISZERO DUP1 ISZERO PUSH2 0x913 JUMPI RETURNDATASIZE PUSH1 0x0 DUP1 RETURNDATACOPY RETURNDATASIZE PUSH1 0x0 REVERT JUMPDEST POP CALLER PUSH20 0xFFFFFFFFFFFFFFFFFFFFFFFFFFFFFFFFFFFFFFFF AND PUSH32 0xE2403640BA68FED3A2F88B7557551D1993F84B99BB10FF833F0CF8DB0C5E0486 DUP3 PUSH1 0x40 MLOAD PUSH2 0x95A SWAP2 SWAP1 PUSH2 0xFD5 JUMP JUMPDEST PUSH1 0x40 MLOAD DUP1 SWAP2 SUB SWAP1 LOG2 POP JUMP JUMPDEST PUSH3 0x19000 DUP2 JUMP JUMPDEST PUSH1 0x0 DUP1 PUSH1 0x0 DUP5 DUP2 MSTORE PUSH1 0x20 ADD SWAP1 DUP2 MSTORE PUSH1 0x20 ADD PUSH1 0x0 KECCAK256 SWAP1 POP PUSH1 0x0 DUP2 PUSH1 0x2 ADD SLOAD GT PUSH2 0x9C9 JUMPI PUSH1 0x40 MLOAD PUSH32 0x8C379A000000000000000000000000000000000000000000000000000000000 DUP2 MSTORE PUSH1 0x4 ADD PUSH2 0x9C0 SWAP1 PUSH2 0x1C45 JUMP JUMPDEST PUSH1 0x40 MLOAD DUP1 SWAP2 SUB SWAP1 REVERT JUMPDEST PUSH2 0x9D7 DUP3 DUP3 PUSH1 0x0 ADD SLOAD PUSH2 0xD26 JUMP JUMPDEST PUSH2 0xA16 JUMPI PUSH1 0x40 MLOAD PUSH32 0x8C379A000000000000000000000000000000000000000000000000000000000 DUP2 MSTORE PUSH1 0x4 ADD PUSH2 0xA0D SWAP1 PUSH2 0x1CB1 JUMP JUMPDEST PUSH1 0x40 MLOAD DUP1 SWAP2 SUB SWAP1 REVERT JUMPDEST PUSH1 0x0 PUSH1 0xA PUSH8 0xDE0B6B3A7640000 PUSH2 0xA2D SWAP2 SWAP1 PUSH2 0x1D00 JUMP JUMPDEST SWAP1 POP DUP1 PUSH1 0x1 PUSH1 0x0 CALLER PUSH20 0xFFFFFFFFFFFFFFFFFFFFFFFFFFFFFFFFFFFFFFFF AND PUSH20 0xFFFFFFFFFFFFFFFFFFFFFFFFFFFFFFFFFFFFFFFF AND DUP2 MSTORE PUSH1 0x20 ADD SWAP1 DUP2 MSTORE PUSH1 0x20 ADD PUSH1 0x0 KECCAK256 PUSH1 0x0 DUP3 DUP3 SLOAD PUSH2 0xA7E SWAP2 SWAP1 PUSH2 0x1B30 JUMP JUMPDEST SWAP3 POP POP DUP2 SWAP1 SSTORE POP DUP4 PUSH32 0x6FCB755B7288A61F09EB609ABDBB64FA31E02EF0CCDB2D8E823E051FE4E6ADA5 CALLER PUSH1 0x40 MLOAD PUSH2 0xAB5 SWAP2 SWAP1 PUSH2 0x1D31 JUMP JUMPDEST PUSH1 0x40 MLOAD DUP1 SWAP2 SUB SWAP1 LOG2 POP POP POP POP JUMP JUMPDEST PUSH8 0xDE0B6B3A7640000 DUP2 JUMP JUMPDEST PUSH2 0xAD7 PUSH2 0xE54 JUMP JUMPDEST PUSH1 0x0 DUP1 PUSH1 0x0 DUP5 DUP2 MSTORE PUSH1 0x20 ADD SWAP1 DUP2 MSTORE PUSH1 0x20 ADD PUSH1 0x0 KECCAK256 PUSH1 0x2 ADD SLOAD GT PUSH2 0xB2F JUMPI PUSH1 0x40 MLOAD PUSH32 0x8C379A000000000000000000000000000000000000000000000000000000000 DUP2 MSTORE PUSH1 0x4 ADD PUSH2 0xB26 SWAP1 PUSH2 0x1C45 JUMP JUMPDEST PUSH1 0x40 MLOAD DUP1 SWAP2 SUB SWAP1 REVERT JUMPDEST PUSH1 0x0 DUP1 DUP4 DUP2 MSTORE PUSH1 0x20 ADD SWAP1 DUP2 MSTORE PUSH1 0x20 ADD PUSH1 0x0 KECCAK256 PUSH1 0x40 MLOAD DUP1 PUSH1 0xA0 ADD PUSH1 0x40 MSTORE SWAP1 DUP2 PUSH1 0x0 DUP3 ADD SLOAD DUP2 MSTORE PUSH1 0x20 ADD PUSH1 0x1 DUP3 ADD SLOAD DUP2 MSTORE PUSH1 0x20 ADD PUSH1 0x2 DUP3 ADD SLOAD DUP2 MSTORE PUSH1 0x20 ADD PUSH1 0x3 DUP3 ADD PUSH1 0x0 SWAP1 SLOAD SWAP1 PUSH2 0x100 EXP SWAP1 DIV PUSH20 0xFFFFFFFFFFFFFFFFFFFFFFFFFFFFFFFFFFFFFFFF AND PUSH20 0xFFFFFFFFFFFFFFFFFFFFFFFFFFFFFFFFFFFFFFFF AND PUSH20 0xFFFFFFFFFFFFFFFFFFFFFFFFFFFFFFFFFFFFFFFF AND DUP2 MSTORE PUSH1 0x20 ADD PUSH1 0x4 DUP3 ADD DUP1 SLOAD DUP1 PUSH1 0x20 MUL PUSH1 0x20 ADD PUSH1 0x40 MLOAD SWAP1 DUP2 ADD PUSH1 0x40 MSTORE DUP1 SWAP3 SWAP2 SWAP1 DUP2 DUP2 MSTORE PUSH1 0x20 ADD PUSH1 0x0 SWAP1 JUMPDEST DUP3 DUP3 LT ISZERO PUSH2 0xC91 JUMPI DUP4 DUP3 SWAP1 PUSH1 0x0 MSTORE PUSH1 0x20 PUSH1 0x0 KECCAK256 ADD DUP1 SLOAD PUSH2 0xC04 SWAP1 PUSH2 0x1D7B JUMP JUMPDEST DUP1 PUSH1 0x1F ADD PUSH1 0x20 DUP1 SWAP2 DIV MUL PUSH1 0x20 ADD PUSH1 0x40 MLOAD SWAP1 DUP2 ADD PUSH1 0x40 MSTORE DUP1 SWAP3 SWAP2 SWAP1 DUP2 DUP2 MSTORE PUSH1 0x20 ADD DUP3 DUP1 SLOAD PUSH2 0xC30 SWAP1 PUSH2 0x1D7B JUMP JUMPDEST DUP1 ISZERO PUSH2 0xC7D JUMPI DUP1 PUSH1 0x1F LT PUSH2 0xC52 JUMPI PUSH2 0x100 DUP1 DUP4 SLOAD DIV MUL DUP4 MSTORE SWAP2 PUSH1 0x20 ADD SWAP2 PUSH2 0xC7D JUMP JUMPDEST DUP3 ADD SWAP2 SWAP1 PUSH1 0x0 MSTORE PUSH1 0x20 PUSH1 0x0 KECCAK256 SWAP1 JUMPDEST DUP2 SLOAD DUP2 MSTORE SWAP1 PUSH1 0x1 ADD SWAP1 PUSH1 0x20 ADD DUP1 DUP4 GT PUSH2 0xC60 JUMPI DUP3 SWAP1 SUB PUSH1 0x1F AND DUP3 ADD SWAP2 JUMPDEST POP POP POP POP POP DUP2 MSTORE PUSH1 0x20 ADD SWAP1 PUSH1 0x1 ADD SWAP1 PUSH2 0xBE5 JUMP JUMPDEST POP POP POP POP DUP2 MSTORE POP POP SWAP1 POP SWAP2 SWAP1 POP JUMP JUMPDEST PUSH1 0x2 PUSH1 0x20 MSTORE DUP2 PUSH1 0x0 MSTORE PUSH1 0x40 PUSH1 0x0 KECCAK256 DUP2 DUP2 SLOAD DUP2 LT PUSH2 0xCBC JUMPI PUSH1 0x0 DUP1 REVERT JUMPDEST SWAP1 PUSH1 0x0 MSTORE PUSH1 0x20 PUSH1 0x0 KECCAK256 ADD PUSH1 0x0 SWAP2 POP SWAP2 POP POP SLOAD DUP2 JUMP JUMPDEST PUSH1 0x0 PUSH1 0x20 MSTORE DUP1 PUSH1 0x0 MSTORE PUSH1 0x40 PUSH1 0x0 KECCAK256 PUSH1 0x0 SWAP2 POP SWAP1 POP DUP1 PUSH1 0x0 ADD SLOAD SWAP1 DUP1 PUSH1 0x1 ADD SLOAD SWAP1 DUP1 PUSH1 0x2 ADD SLOAD SWAP1 DUP1 PUSH1 0x3 ADD PUSH1 0x0 SWAP1 SLOAD SWAP1 PUSH2 0x100 EXP SWAP1 DIV PUSH20 0xFFFFFFFFFFFFFFFFFFFFFFFFFFFFFFFFFFFFFFFF AND SWAP1 POP DUP5 JUMP JUMPDEST PUSH1 0x3 DUP2 JUMP JUMPDEST PUSH1 0x0 DUP1 DUP4 PUSH1 0x0 DUP2 MLOAD DUP2 LT PUSH2 0xD3D JUMPI PUSH2 0xD3C PUSH2 0x1DAC JUMP JUMPDEST JUMPDEST PUSH1 0x20 MUL PUSH1 0x20 ADD ADD MLOAD SWAP1 POP PUSH1 0x0 PUSH1 0x1 SWAP1 POP JUMPDEST DUP5 MLOAD DUP2 LT ISZERO PUSH2 0xDEE JUMPI PUSH1 0x0 DUP6 DUP3 DUP2 MLOAD DUP2 LT PUSH2 0xD6C JUMPI PUSH2 0xD6B PUSH2 0x1DAC JUMP JUMPDEST JUMPDEST PUSH1 0x20 MUL PUSH1 0x20 ADD ADD MLOAD SWAP1 POP DUP1 DUP4 LT ISZERO PUSH2 0xDAE JUMPI DUP3 DUP2 PUSH1 0x40 MLOAD PUSH1 0x20 ADD PUSH2 0xD91 SWAP3 SWAP2 SWAP1 PUSH2 0x1DDB JUMP JUMPDEST PUSH1 0x40 MLOAD PUSH1 0x20 DUP2 DUP4 SUB SUB DUP2 MSTORE SWAP1 PUSH1 0x40 MSTORE DUP1 MLOAD SWAP1 PUSH1 0x20 ADD KECCAK256 SWAP3 POP PUSH2 0xDDA JUMP JUMPDEST DUP1 DUP4 PUSH1 0x40 MLOAD PUSH1 0x20 ADD PUSH2 0xDC1 SWAP3 SWAP2 SWAP1 PUSH2 0x1DDB JUMP JUMPDEST PUSH1 0x40 MLOAD PUSH1 0x20 DUP2 DUP4 SUB SUB DUP2 MSTORE SWAP1 PUSH1 0x40 MSTORE DUP1 MLOAD SWAP1 PUSH1 0x20 ADD KECCAK256 SWAP3 POP JUMPDEST POP DUP1 DUP1 PUSH2 0xDE6 SWAP1 PUSH2 0x1E07 JUMP JUMPDEST SWAP2 POP POP PUSH2 0xD4E JUMP JUMPDEST POP DUP3 DUP2 EQ SWAP2 POP POP SWAP3 SWAP2 POP POP JUMP JUMPDEST DUP3 DUP1 SLOAD DUP3 DUP3 SSTORE SWAP1 PUSH1 0x0 MSTORE PUSH1 0x20 PUSH1 0x0 KECCAK256 SWAP1 DUP2 ADD SWAP3 DUP3 ISZERO PUSH2 0xE43 JUMPI SWAP2 PUSH1 0x20 MUL DUP3 ADD JUMPDEST DUP3 DUP2 GT ISZERO PUSH2 0xE42 JUMPI DUP3 MLOAD DUP3 SWAP1 DUP2 PUSH2 0xE32 SWAP2 SWAP1 PUSH2 0x1FFB JUMP JUMPDEST POP SWAP2 PUSH1 0x20 ADD SWAP2 SWAP1 PUSH1 0x1 ADD SWAP1 PUSH2 0xE1B JUMP JUMPDEST JUMPDEST POP SWAP1 POP PUSH2 0xE50 SWAP2 SWAP1 PUSH2 0xE9C JUMP JUMPDEST POP SWAP1 JUMP JUMPDEST PUSH1 0x40 MLOAD DUP1 PUSH1 0xA0 ADD PUSH1 0x40 MSTORE DUP1 PUSH1 0x0 DUP1 NOT AND DUP2 MSTORE PUSH1 0x20 ADD PUSH1 0x0 DUP2 MSTORE PUSH1 0x20 ADD PUSH1 0x0 DUP2 MSTORE PUSH1 0x20 ADD PUSH1 0x0 PUSH20 0xFFFFFFFFFFFFFFFFFFFFFFFFFFFFFFFFFFFFFFFF AND DUP2 MSTORE PUSH1 0x20 ADD PUSH1 0x60 DUP2 MSTORE POP SWAP1 JUMP JUMPDEST JUMPDEST DUP1 DUP3 GT ISZERO PUSH2 0xEBC JUMPI PUSH1 0x0 DUP2 DUP2 PUSH2 0xEB3 SWAP2 SWAP1 PUSH2 0xEC0 JUMP JUMPDEST POP PUSH1 0x1 ADD PUSH2 0xE9D JUMP JUMPDEST POP SWAP1 JUMP JUMPDEST POP DUP1 SLOAD PUSH2 0xECC SWAP1 PUSH2 0x1D7B JUMP JUMPDEST PUSH1 0x0 DUP3 SSTORE DUP1 PUSH1 0x1F LT PUSH2 0xEDE JUMPI POP PUSH2 0xEFD JUMP JUMPDEST PUSH1 0x1F ADD PUSH1 0x20 SWAP1 DIV SWAP1 PUSH1 0x0 MSTORE PUSH1 0x20 PUSH1 0x0 KECCAK256 SWAP1 DUP2 ADD SWAP1 PUSH2 0xEFC SWAP2 SWAP1 PUSH2 0xF00 JUMP JUMPDEST JUMPDEST POP JUMP JUMPDEST JUMPDEST DUP1 DUP3 GT ISZERO PUSH2 0xF19 JUMPI PUSH1 0x0 DUP2 PUSH1 0x0 SWAP1 SSTORE POP PUSH1 0x1 ADD PUSH2 0xF01 JUMP JUMPDEST POP SWAP1 JUMP JUMPDEST PUSH1 0x0 PUSH1 0x40 MLOAD SWAP1 POP SWAP1 JUMP JUMPDEST PUSH1 0x0 DUP1 REVERT JUMPDEST PUSH1 0x0 DUP1 REVERT JUMPDEST PUSH1 0x0 PUSH20 0xFFFFFFFFFFFFFFFFFFFFFFFFFFFFFFFFFFFFFFFF DUP3 AND SWAP1 POP SWAP2 SWAP1 POP JUMP JUMPDEST PUSH1 0x0 PUSH2 0xF5C DUP3 PUSH2 0xF31 JUMP JUMPDEST SWAP1 POP SWAP2 SWAP1 POP JUMP JUMPDEST PUSH2 0xF6C DUP2 PUSH2 0xF51 JUMP JUMPDEST DUP2 EQ PUSH2 0xF77 JUMPI PUSH1 0x0 DUP1 REVERT JUMPDEST POP JUMP JUMPDEST PUSH1 0x0 DUP2 CALLDATALOAD SWAP1 POP PUSH2 0xF89 DUP2 PUSH2 0xF63 JUMP JUMPDEST SWAP3 SWAP2 POP POP JUMP JUMPDEST PUSH1 0x0 PUSH1 0x20 DUP3 DUP5 SUB SLT ISZERO PUSH2 0xFA5 JUMPI PUSH2 0xFA4 PUSH2 0xF27 JUMP JUMPDEST JUMPDEST PUSH1 0x0 PUSH2 0xFB3 DUP5 DUP3 DUP6 ADD PUSH2 0xF7A JUMP JUMPDEST SWAP2 POP POP SWAP3 SWAP2 POP POP JUMP JUMPDEST PUSH1 0x0 DUP2 SWAP1 POP SWAP2 SWAP1 POP JUMP JUMPDEST PUSH2 0xFCF DUP2 PUSH2 0xFBC JUMP JUMPDEST DUP3 MSTORE POP POP JUMP JUMPDEST PUSH1 0x0 PUSH1 0x20 DUP3 ADD SWAP1 POP PUSH2 0xFEA PUSH1 0x0 DUP4 ADD DUP5 PUSH2 0xFC6 JUMP JUMPDEST SWAP3 SWAP2 POP POP JUMP JUMPDEST PUSH1 0x0 DUP2 SWAP1 POP SWAP2 SWAP1 POP JUMP JUMPDEST PUSH2 0x1003 DUP2 PUSH2 0xFF0 JUMP JUMPDEST DUP2 EQ PUSH2 0x100E JUMPI PUSH1 0x0 DUP1 REVERT JUMPDEST POP JUMP JUMPDEST PUSH1 0x0 DUP2 CALLDATALOAD SWAP1 POP PUSH2 0x1020 DUP2 PUSH2 0xFFA JUMP JUMPDEST SWAP3 SWAP2 POP POP JUMP JUMPDEST PUSH1 0x0 DUP1 PUSH1 0x40 DUP4 DUP6 SUB SLT ISZERO PUSH2 0x103D JUMPI PUSH2 0x103C PUSH2 0xF27 JUMP JUMPDEST JUMPDEST PUSH1 0x0 PUSH2 0x104B DUP6 DUP3 DUP7 ADD PUSH2 0x1011 JUMP JUMPDEST SWAP3 POP POP PUSH1 0x20 PUSH2 0x105C DUP6 DUP3 DUP7 ADD PUSH2 0xF7A JUMP JUMPDEST SWAP2 POP POP SWAP3 POP SWAP3 SWAP1 POP JUMP JUMPDEST PUSH1 0x0 DUP2 MLOAD SWAP1 POP SWAP2 SWAP1 POP JUMP JUMPDEST PUSH1 0x0 DUP3 DUP3 MSTORE PUSH1 0x20 DUP3 ADD SWAP1 POP SWAP3 SWAP2 POP POP JUMP JUMPDEST PUSH1 0x0 DUP2 SWAP1 POP PUSH1 0x20 DUP3 ADD SWAP1 POP SWAP2 SWAP1 POP JUMP JUMPDEST PUSH2 0x109B DUP2 PUSH2 0xFF0 JUMP JUMPDEST DUP3 MSTORE POP POP JUMP JUMPDEST PUSH1 0x0 PUSH2 0x10AD DUP4 DUP4 PUSH2 0x1092 JUMP JUMPDEST PUSH1 0x20 DUP4 ADD SWAP1 POP SWAP3 SWAP2 POP POP JUMP JUMPDEST PUSH1 0x0 PUSH1 0x20 DUP3 ADD SWAP1 POP SWAP2 SWAP1 POP JUMP JUMPDEST PUSH1 0x0 PUSH2 0x10D1 DUP3 PUSH2 0x1066 JUMP JUMPDEST PUSH2 0x10DB DUP2 DUP6 PUSH2 0x1071 JUMP JUMPDEST SWAP4 POP PUSH2 0x10E6 DUP4 PUSH2 0x1082 JUMP JUMPDEST DUP1 PUSH1 0x0 JUMPDEST DUP4 DUP2 LT ISZERO PUSH2 0x1117 JUMPI DUP2 MLOAD PUSH2 0x10FE DUP9 DUP3 PUSH2 0x10A1 JUMP JUMPDEST SWAP8 POP PUSH2 0x1109 DUP4 PUSH2 0x10B9 JUMP JUMPDEST SWAP3 POP POP PUSH1 0x1 DUP2 ADD SWAP1 POP PUSH2 0x10EA JUMP JUMPDEST POP DUP6 SWAP4 POP POP POP POP SWAP3 SWAP2 POP POP JUMP JUMPDEST PUSH1 0x0 PUSH1 0x20 DUP3 ADD SWAP1 POP DUP2 DUP2 SUB PUSH1 0x0 DUP4 ADD MSTORE PUSH2 0x113E DUP2 DUP5 PUSH2 0x10C6 JUMP JUMPDEST SWAP1 POP SWAP3 SWAP2 POP POP JUMP JUMPDEST PUSH2 0x114F DUP2 PUSH2 0xFBC JUMP JUMPDEST DUP2 EQ PUSH2 0x115A JUMPI PUSH1 0x0 DUP1 REVERT JUMPDEST POP JUMP JUMPDEST PUSH1 0x0 DUP2 CALLDATALOAD SWAP1 POP PUSH2 0x116C DUP2 PUSH2 0x1146 JUMP JUMPDEST SWAP3 SWAP2 POP POP JUMP JUMPDEST PUSH1 0x0 DUP1 REVERT JUMPDEST PUSH1 0x0 PUSH1 0x1F NOT PUSH1 0x1F DUP4 ADD AND SWAP1 POP SWAP2 SWAP1 POP JUMP JUMPDEST PUSH32 0x4E487B7100000000000000000000000000000000000000000000000000000000 PUSH1 0x0 MSTORE PUSH1 0x41 PUSH1 0x4 MSTORE PUSH1 0x24 PUSH1 0x0 REVERT JUMPDEST PUSH2 0x11C0 DUP3 PUSH2 0x1177 JUMP JUMPDEST DUP2 ADD DUP2 DUP2 LT PUSH8 0xFFFFFFFFFFFFFFFF DUP3 GT OR ISZERO PUSH2 0x11DF JUMPI PUSH2 0x11DE PUSH2 0x1188 JUMP JUMPDEST JUMPDEST DUP1 PUSH1 0x40 MSTORE POP POP POP JUMP JUMPDEST PUSH1 0x0 PUSH2 0x11F2 PUSH2 0xF1D JUMP JUMPDEST SWAP1 POP PUSH2 0x11FE DUP3 DUP3 PUSH2 0x11B7 JUMP JUMPDEST SWAP2 SWAP1 POP JUMP JUMPDEST PUSH1 0x0 PUSH8 0xFFFFFFFFFFFFFFFF DUP3 GT ISZERO PUSH2 0x121E JUMPI PUSH2 0x121D PUSH2 0x1188 JUMP JUMPDEST JUMPDEST PUSH1 0x20 DUP3 MUL SWAP1 POP PUSH1 0x20 DUP2 ADD SWAP1 POP SWAP2 SWAP1 POP JUMP JUMPDEST PUSH1 0x0 DUP1 REVERT JUMPDEST PUSH1 0x0 DUP1 REVERT JUMPDEST PUSH1 0x0 PUSH8 0xFFFFFFFFFFFFFFFF DUP3 GT ISZERO PUSH2 0x1254 JUMPI PUSH2 0x1253 PUSH2 0x1188 JUMP JUMPDEST JUMPDEST PUSH2 0x125D DUP3 PUSH2 0x1177 JUMP JUMPDEST SWAP1 POP PUSH1 0x20 DUP2 ADD SWAP1 POP SWAP2 SWAP1 POP JUMP JUMPDEST DUP3 DUP2 DUP4 CALLDATACOPY PUSH1 0x0 DUP4 DUP4 ADD MSTORE POP POP POP JUMP JUMPDEST PUSH1 0x0 PUSH2 0x128C PUSH2 0x1287 DUP5 PUSH2 0x1239 JUMP JUMPDEST PUSH2 0x11E8 JUMP JUMPDEST SWAP1 POP DUP3 DUP2 MSTORE PUSH1 0x20 DUP2 ADD DUP5 DUP5 DUP5 ADD GT ISZERO PUSH2 0x12A8 JUMPI PUSH2 0x12A7 PUSH2 0x1234 JUMP JUMPDEST JUMPDEST PUSH2 0x12B3 DUP5 DUP3 DUP6 PUSH2 0x126A JUMP JUMPDEST POP SWAP4 SWAP3 POP POP POP JUMP JUMPDEST PUSH1 0x0 DUP3 PUSH1 0x1F DUP4 ADD SLT PUSH2 0x12D0 JUMPI PUSH2 0x12CF PUSH2 0x1172 JUMP JUMPDEST JUMPDEST DUP2 CALLDATALOAD PUSH2 0x12E0 DUP5 DUP3 PUSH1 0x20 DUP7 ADD PUSH2 0x1279 JUMP JUMPDEST SWAP2 POP POP SWAP3 SWAP2 POP POP JUMP JUMPDEST PUSH1 0x0 PUSH2 0x12FC PUSH2 0x12F7 DUP5 PUSH2 0x1203 JUMP JUMPDEST PUSH2 0x11E8 JUMP JUMPDEST SWAP1 POP DUP1 DUP4 DUP3 MSTORE PUSH1 0x20 DUP3 ADD SWAP1 POP PUSH1 0x20 DUP5 MUL DUP4 ADD DUP6 DUP2 GT ISZERO PUSH2 0x131F JUMPI PUSH2 0x131E PUSH2 0x122F JUMP JUMPDEST JUMPDEST DUP4 JUMPDEST DUP2 DUP2 LT ISZERO PUSH2 0x1366 JUMPI DUP1 CALLDATALOAD PUSH8 0xFFFFFFFFFFFFFFFF DUP2 GT ISZERO PUSH2 0x1344 JUMPI PUSH2 0x1343 PUSH2 0x1172 JUMP JUMPDEST JUMPDEST DUP1 DUP7 ADD PUSH2 0x1351 DUP10 DUP3 PUSH2 0x12BB JUMP JUMPDEST DUP6 MSTORE PUSH1 0x20 DUP6 ADD SWAP5 POP POP POP PUSH1 0x20 DUP2 ADD SWAP1 POP PUSH2 0x1321 JUMP JUMPDEST POP POP POP SWAP4 SWAP3 POP POP POP JUMP JUMPDEST PUSH1 0x0 DUP3 PUSH1 0x1F DUP4 ADD SLT PUSH2 0x1385 JUMPI PUSH2 0x1384 PUSH2 0x1172 JUMP JUMPDEST JUMPDEST DUP2 CALLDATALOAD PUSH2 0x1395 DUP5 DUP3 PUSH1 0x20 DUP7 ADD PUSH2 0x12E9 JUMP JUMPDEST SWAP2 POP POP SWAP3 SWAP2 POP POP JUMP JUMPDEST PUSH1 0x0 DUP1 PUSH1 0x0 PUSH1 0x60 DUP5 DUP7 SUB SLT ISZERO PUSH2 0x13B7 JUMPI PUSH2 0x13B6 PUSH2 0xF27 JUMP JUMPDEST JUMPDEST PUSH1 0x0 PUSH2 0x13C5 DUP7 DUP3 DUP8 ADD PUSH2 0x1011 JUMP JUMPDEST SWAP4 POP POP PUSH1 0x20 PUSH2 0x13D6 DUP7 DUP3 DUP8 ADD PUSH2 0x115D JUMP JUMPDEST SWAP3 POP POP PUSH1 0x40 DUP5 ADD CALLDATALOAD PUSH8 0xFFFFFFFFFFFFFFFF DUP2 GT ISZERO PUSH2 0x13F7 JUMPI PUSH2 0x13F6 PUSH2 0xF2C JUMP JUMPDEST JUMPDEST PUSH2 0x1403 DUP7 DUP3 DUP8 ADD PUSH2 0x1370 JUMP JUMPDEST SWAP2 POP POP SWAP3 POP SWAP3 POP SWAP3 JUMP JUMPDEST PUSH1 0x0 PUSH8 0xFFFFFFFFFFFFFFFF DUP3 GT ISZERO PUSH2 0x1428 JUMPI PUSH2 0x1427 PUSH2 0x1188 JUMP JUMPDEST JUMPDEST PUSH1 0x20 DUP3 MUL SWAP1 POP PUSH1 0x20 DUP2 ADD SWAP1 POP SWAP2 SWAP1 POP JUMP JUMPDEST PUSH1 0x0 PUSH2 0x144C PUSH2 0x1447 DUP5 PUSH2 0x140D JUMP JUMPDEST PUSH2 0x11E8 JUMP JUMPDEST SWAP1 POP DUP1 DUP4 DUP3 MSTORE PUSH1 0x20 DUP3 ADD SWAP1 POP PUSH1 0x20 DUP5 MUL DUP4 ADD DUP6 DUP2 GT ISZERO PUSH2 0x146F JUMPI PUSH2 0x146E PUSH2 0x122F JUMP JUMPDEST JUMPDEST DUP4 JUMPDEST DUP2 DUP2 LT ISZERO PUSH2 0x1498 JUMPI DUP1 PUSH2 0x1484 DUP9 DUP3 PUSH2 0x1011 JUMP JUMPDEST DUP5 MSTORE PUSH1 0x20 DUP5 ADD SWAP4 POP POP PUSH1 0x20 DUP2 ADD SWAP1 POP PUSH2 0x1471 JUMP JUMPDEST POP POP POP SWAP4 SWAP3 POP POP POP JUMP JUMPDEST PUSH1 0x0 DUP3 PUSH1 0x1F DUP4 ADD SLT PUSH2 0x14B7 JUMPI PUSH2 0x14B6 PUSH2 0x1172 JUMP JUMPDEST JUMPDEST DUP2 CALLDATALOAD PUSH2 0x14C7 DUP5 DUP3 PUSH1 0x20 DUP7 ADD PUSH2 0x1439 JUMP JUMPDEST SWAP2 POP POP SWAP3 SWAP2 POP POP JUMP JUMPDEST PUSH1 0x0 DUP1 PUSH1 0x40 DUP4 DUP6 SUB SLT ISZERO PUSH2 0x14E7 JUMPI PUSH2 0x14E6 PUSH2 0xF27 JUMP JUMPDEST JUMPDEST PUSH1 0x0 PUSH2 0x14F5 DUP6 DUP3 DUP7 ADD PUSH2 0x1011 JUMP JUMPDEST SWAP3 POP POP PUSH1 0x20 DUP4 ADD CALLDATALOAD PUSH8 0xFFFFFFFFFFFFFFFF DUP2 GT ISZERO PUSH2 0x1516 JUMPI PUSH2 0x1515 PUSH2 0xF2C JUMP JUMPDEST JUMPDEST PUSH2 0x1522 DUP6 DUP3 DUP7 ADD PUSH2 0x14A2 JUMP JUMPDEST SWAP2 POP POP SWAP3 POP SWAP3 SWAP1 POP JUMP JUMPDEST PUSH1 0x0 PUSH1 0x20 DUP3 DUP5 SUB SLT ISZERO PUSH2 0x1542 JUMPI PUSH2 0x1541 PUSH2 0xF27 JUMP JUMPDEST JUMPDEST PUSH1 0x0 PUSH2 0x1550 DUP5 DUP3 DUP6 ADD PUSH2 0x1011 JUMP JUMPDEST SWAP2 POP POP SWAP3 SWAP2 POP POP JUMP JUMPDEST PUSH2 0x1562 DUP2 PUSH2 0xFBC JUMP JUMPDEST DUP3 MSTORE POP POP JUMP JUMPDEST PUSH2 0x1571 DUP2 PUSH2 0xF51 JUMP JUMPDEST DUP3 MSTORE POP POP JUMP JUMPDEST PUSH1 0x0 DUP2 MLOAD SWAP1 POP SWAP2 SWAP1 POP JUMP JUMPDEST PUSH1 0x0 DUP3 DUP3 MSTORE PUSH1 0x20 DUP3 ADD SWAP1 POP SWAP3 SWAP2 POP POP JUMP JUMPDEST PUSH1 0x0 DUP2 SWAP1 POP PUSH1 0x20 DUP3 ADD SWAP1 POP SWAP2 SWAP1 POP JUMP JUMPDEST PUSH1 0x0 DUP2 MLOAD SWAP1 POP SWAP2 SWAP1 POP JUMP JUMPDEST PUSH1 0x0 DUP3 DUP3 MSTORE PUSH1 0x20 DUP3 ADD SWAP1 POP SWAP3 SWAP2 POP POP JUMP JUMPDEST PUSH1 0x0 JUMPDEST DUP4 DUP2 LT ISZERO PUSH2 0x15DD JUMPI DUP1 DUP3 ADD MLOAD DUP2 DUP5 ADD MSTORE PUSH1 0x20 DUP2 ADD SWAP1 POP PUSH2 0x15C2 JUMP JUMPDEST PUSH1 0x0 DUP5 DUP5 ADD MSTORE POP POP POP POP JUMP JUMPDEST PUSH1 0x0 PUSH2 0x15F4 DUP3 PUSH2 0x15A3 JUMP JUMPDEST PUSH2 0x15FE DUP2 DUP6 PUSH2 0x15AE JUMP JUMPDEST SWAP4 POP PUSH2 0x160E DUP2 DUP6 PUSH1 0x20 DUP7 ADD PUSH2 0x15BF JUMP JUMPDEST PUSH2 0x1617 DUP2 PUSH2 0x1177 JUMP JUMPDEST DUP5 ADD SWAP2 POP POP SWAP3 SWAP2 POP POP JUMP JUMPDEST PUSH1 0x0 PUSH2 0x162E DUP4 DUP4 PUSH2 0x15E9 JUMP JUMPDEST SWAP1 POP SWAP3 SWAP2 POP POP JUMP JUMPDEST PUSH1 0x0 PUSH1 0x20 DUP3 ADD SWAP1 POP SWAP2 SWAP1 POP JUMP JUMPDEST PUSH1 0x0 PUSH2 0x164E DUP3 PUSH2 0x1577 JUMP JUMPDEST PUSH2 0x1658 DUP2 DUP6 PUSH2 0x1582 JUMP JUMPDEST SWAP4 POP DUP4 PUSH1 0x20 DUP3 MUL DUP6 ADD PUSH2 0x166A DUP6 PUSH2 0x1593 JUMP JUMPDEST DUP1 PUSH1 0x0 JUMPDEST DUP6 DUP2 LT ISZERO PUSH2 0x16A6 JUMPI DUP5 DUP5 SUB DUP10 MSTORE DUP2 MLOAD PUSH2 0x1687 DUP6 DUP3 PUSH2 0x1622 JUMP JUMPDEST SWAP5 POP PUSH2 0x1692 DUP4 PUSH2 0x1636 JUMP JUMPDEST SWAP3 POP PUSH1 0x20 DUP11 ADD SWAP10 POP POP PUSH1 0x1 DUP2 ADD SWAP1 POP PUSH2 0x166E JUMP JUMPDEST POP DUP3 SWAP8 POP DUP8 SWAP6 POP POP POP POP POP POP SWAP3 SWAP2 POP POP JUMP JUMPDEST PUSH1 0x0 PUSH1 0xA0 DUP4 ADD PUSH1 0x0 DUP4 ADD MLOAD PUSH2 0x16D0 PUSH1 0x0 DUP7 ADD DUP3 PUSH2 0x1092 JUMP JUMPDEST POP PUSH1 0x20 DUP4 ADD MLOAD PUSH2 0x16E3 PUSH1 0x20 DUP7 ADD DUP3 PUSH2 0x1559 JUMP JUMPDEST POP PUSH1 0x40 DUP4 ADD MLOAD PUSH2 0x16F6 PUSH1 0x40 DUP7 ADD DUP3 PUSH2 0x1559 JUMP JUMPDEST POP PUSH1 0x60 DUP4 ADD MLOAD PUSH2 0x1709 PUSH1 0x60 DUP7 ADD DUP3 PUSH2 0x1568 JUMP JUMPDEST POP PUSH1 0x80 DUP4 ADD MLOAD DUP5 DUP3 SUB PUSH1 0x80 DUP7 ADD MSTORE PUSH2 0x1721 DUP3 DUP3 PUSH2 0x1643 JUMP JUMPDEST SWAP2 POP POP DUP1 SWAP2 POP POP SWAP3 SWAP2 POP POP JUMP JUMPDEST PUSH1 0x0 PUSH1 0x20 DUP3 ADD SWAP1 POP DUP2 DUP2 SUB PUSH1 0x0 DUP4 ADD MSTORE PUSH2 0x1748 DUP2 DUP5 PUSH2 0x16B8 JUMP JUMPDEST SWAP1 POP SWAP3 SWAP2 POP POP JUMP JUMPDEST PUSH1 0x0 DUP1 PUSH1 0x40 DUP4 DUP6 SUB SLT ISZERO PUSH2 0x1767 JUMPI PUSH2 0x1766 PUSH2 0xF27 JUMP JUMPDEST JUMPDEST PUSH1 0x0 PUSH2 0x1775 DUP6 DUP3 DUP7 ADD PUSH2 0xF7A JUMP JUMPDEST SWAP3 POP POP PUSH1 0x20 PUSH2 0x1786 DUP6 DUP3 DUP7 ADD PUSH2 0x115D JUMP JUMPDEST SWAP2 POP POP SWAP3 POP SWAP3 SWAP1 POP JUMP JUMPDEST PUSH2 0x1799 DUP2 PUSH2 0xFF0 JUMP JUMPDEST DUP3 MSTORE POP POP JUMP JUMPDEST PUSH1 0x0 PUSH1 0x20 DUP3 ADD SWAP1 POP PUSH2 0x17B4 PUSH1 0x0 DUP4 ADD DUP5 PUSH2 0x1790 JUMP JUMPDEST SWAP3 SWAP2 POP POP JUMP JUMPDEST PUSH2 0x17C3 DUP2 PUSH2 0xF51 JUMP JUMPDEST DUP3 MSTORE POP POP JUMP JUMPDEST PUSH1 0x0 PUSH1 0x80 DUP3 ADD SWAP1 POP PUSH2 0x17DE PUSH1 0x0 DUP4 ADD DUP8 PUSH2 0x1790 JUMP JUMPDEST PUSH2 0x17EB PUSH1 0x20 DUP4 ADD DUP7 PUSH2 0xFC6 JUMP JUMPDEST PUSH2 0x17F8 PUSH1 0x40 DUP4 ADD DUP6 PUSH2 0xFC6 JUMP JUMPDEST PUSH2 0x1805 PUSH1 0x60 DUP4 ADD DUP5 PUSH2 0x17BA JUMP JUMPDEST SWAP6 SWAP5 POP POP POP POP POP JUMP JUMPDEST PUSH1 0x0 DUP3 DUP3 MSTORE PUSH1 0x20 DUP3 ADD SWAP1 POP SWAP3 SWAP2 POP POP JUMP JUMPDEST PUSH32 0x4E6F742066696C65206F776E6572000000000000000000000000000000000000 PUSH1 0x0 DUP3 ADD MSTORE POP JUMP JUMPDEST PUSH1 0x0 PUSH2 0x1855 PUSH1 0xE DUP4 PUSH2 0x180E JUMP JUMPDEST SWAP2 POP PUSH2 0x1860 DUP3 PUSH2 0x181F JUMP JUMPDEST PUSH1 0x20 DUP3 ADD SWAP1 POP SWAP2 SWAP1 POP JUMP JUMPDEST PUSH1 0x0 PUSH1 0x20 DUP3 ADD SWAP1 POP DUP2 DUP2 SUB PUSH1 0x0 DUP4 ADD MSTORE PUSH2 0x1884 DUP2 PUSH2 0x1848 JUMP JUMPDEST SWAP1 POP SWAP2 SWAP1 POP JUMP JUMPDEST PUSH32 0x496E76616C696420726563697069656E74000000000000000000000000000000 PUSH1 0x0 DUP3 ADD MSTORE POP JUMP JUMPDEST PUSH1 0x0 PUSH2 0x18C1 PUSH1 0x11 DUP4 PUSH2 0x180E JUMP JUMPDEST SWAP2 POP PUSH2 0x18CC DUP3 PUSH2 0x188B JUMP JUMPDEST PUSH1 0x20 DUP3 ADD SWAP1 POP SWAP2 SWAP1 POP JUMP JUMPDEST PUSH1 0x0 PUSH1 0x20 DUP3 ADD SWAP1 POP DUP2 DUP2 SUB PUSH1 0x0 DUP4 ADD MSTORE PUSH2 0x18F0 DUP2 PUSH2 0x18B4 JUMP JUMPDEST SWAP1 POP SWAP2 SWAP1 POP JUMP JUMPDEST PUSH1 0x0 PUSH1 0x40 DUP3 ADD SWAP1 POP PUSH2 0x190C PUSH1 0x0 DUP4 ADD DUP6 PUSH2 0x17BA JUMP JUMPDEST PUSH2 0x1919 PUSH1 0x20 DUP4 ADD DUP5 PUSH2 0x17BA JUMP JUMPDEST SWAP4 SWAP3 POP POP POP JUMP JUMPDEST PUSH32 0x46696C652073697A65206D75737420626520706F736974697665000000000000 PUSH1 0x0 DUP3 ADD MSTORE POP JUMP JUMPDEST PUSH1 0x0 PUSH2 0x1956 PUSH1 0x1A DUP4 PUSH2 0x180E JUMP JUMPDEST SWAP2 POP PUSH2 0x1961 DUP3 PUSH2 0x1920 JUMP JUMPDEST PUSH1 0x20 DUP3 ADD SWAP1 POP SWAP2 SWAP1 POP JUMP JUMPDEST PUSH1 0x0 PUSH1 0x20 DUP3 ADD SWAP1 POP DUP2 DUP2 SUB PUSH1 0x0 DUP4 ADD MSTORE PUSH2 0x1985 DUP2 PUSH2 0x1949 JUMP JUMPDEST SWAP1 POP SWAP2 SWAP1 POP JUMP JUMPDEST PUSH32 0x4D7573742068617665206174206C65617374206F6E6520736861726400000000 PUSH1 0x0 DUP3 ADD MSTORE POP JUMP JUMPDEST PUSH1 0x0 PUSH2 0x19C2 PUSH1 0x1C DUP4 PUSH2 0x180E JUMP JUMPDEST SWAP2 POP PUSH2 0x19CD DUP3 PUSH2 0x198C JUMP JUMPDEST PUSH1 0x20 DUP3 ADD SWAP1 POP SWAP2 SWAP1 POP JUMP JUMPDEST PUSH1 0x0 PUSH1 0x20 DUP3 ADD SWAP1 POP DUP2 DUP2 SUB PUSH1 0x0 DUP4 ADD MSTORE PUSH2 0x19F1 DUP2 PUSH2 0x19B5 JUMP JUMPDEST SWAP1 POP SWAP2 SWAP1 POP JUMP JUMPDEST PUSH1 0x0 DUP2 SWAP1 POP SWAP2 SWAP1 POP JUMP JUMPDEST PUSH2 0x1A13 PUSH2 0x1A0E DUP3 PUSH2 0xFF0 JUMP JUMPDEST PUSH2 0x19F8 JUMP JUMPDEST DUP3 MSTORE POP POP JUMP JUMPDEST PUSH1 0x0 DUP2 PUSH1 0x60 SHL SWAP1 POP SWAP2 SWAP1 POP JUMP JUMPDEST PUSH1 0x0 PUSH2 0x1A31 DUP3 PUSH2 0x1A19 JUMP JUMPDEST SWAP1 POP SWAP2 SWAP1 POP JUMP JUMPDEST PUSH1 0x0 PUSH2 0x1A43 DUP3 PUSH2 0x1A26 JUMP JUMPDEST SWAP1 POP SWAP2 SWAP1 POP JUMP JUMPDEST PUSH2 0x1A5B PUSH2 0x1A56 DUP3 PUSH2 0xF51 JUMP JUMPDEST PUSH2 0x1A38 JUMP JUMPDEST DUP3 MSTORE POP POP JUMP JUMPDEST PUSH1 0x0 DUP2 SWAP1 POP SWAP2 SWAP1 POP JUMP JUMPDEST PUSH2 0x1A7C PUSH2 0x1A77 DUP3 PUSH2 0xFBC JUMP JUMPDEST PUSH2 0x1A61 JUMP JUMPDEST DUP3 MSTORE POP POP JUMP JUMPDEST PUSH1 0x0 PUSH2 0x1A8E DUP3 DUP7 PUSH2 0x1A02 JUMP JUMPDEST PUSH1 0x20 DUP3 ADD SWAP2 POP PUSH2 0x1A9E DUP3 DUP6 PUSH2 0x1A4A JUMP JUMPDEST PUSH1 0x14 DUP3 ADD SWAP2 POP PUSH2 0x1AAE DUP3 DUP5 PUSH2 0x1A6B JUMP JUMPDEST PUSH1 0x20 DUP3 ADD SWAP2 POP DUP2 SWAP1 POP SWAP5 SWAP4 POP POP POP POP JUMP JUMPDEST PUSH32 0x4E487B7100000000000000000000000000000000000000000000000000000000 PUSH1 0x0 MSTORE PUSH1 0x11 PUSH1 0x4 MSTORE PUSH1 0x24 PUSH1 0x0 REVERT JUMPDEST PUSH1 0x0 PUSH2 0x1AF9 DUP3 PUSH2 0xFBC JUMP JUMPDEST SWAP2 POP PUSH2 0x1B04 DUP4 PUSH2 0xFBC JUMP JUMPDEST SWAP3 POP DUP3 DUP3 MUL PUSH2 0x1B12 DUP2 PUSH2 0xFBC JUMP JUMPDEST SWAP2 POP DUP3 DUP3 DIV DUP5 EQ DUP4 ISZERO OR PUSH2 0x1B29 JUMPI PUSH2 0x1B28 PUSH2 0x1ABF JUMP JUMPDEST JUMPDEST POP SWAP3 SWAP2 POP POP JUMP JUMPDEST PUSH1 0x0 PUSH2 0x1B3B DUP3 PUSH2 0xFBC JUMP JUMPDEST SWAP2 POP PUSH2 0x1B46 DUP4 PUSH2 0xFBC JUMP JUMPDEST SWAP3 POP DUP3 DUP3 ADD SWAP1 POP DUP1 DUP3 GT ISZERO PUSH2 0x1B5E JUMPI PUSH2 0x1B5D PUSH2 0x1ABF JUMP JUMPDEST JUMPDEST SWAP3 SWAP2 POP POP JUMP JUMPDEST PUSH1 0x0 PUSH1 0x40 DUP3 ADD SWAP1 POP PUSH2 0x1B79 PUSH1 0x0 DUP4 ADD DUP6 PUSH2 0x17BA JUMP JUMPDEST PUSH2 0x1B86 PUSH1 0x20 DUP4 ADD DUP5 PUSH2 0xFC6 JUMP JUMPDEST SWAP4 SWAP3 POP POP POP JUMP JUMPDEST PUSH32 0x4E6F207265776172647320746F20636C61696D00000000000000000000000000 PUSH1 0x0 DUP3 ADD MSTORE POP JUMP JUMPDEST PUSH1 0x0 PUSH2 0x1BC3 PUSH1 0x13 DUP4 PUSH2 0x180E JUMP JUMPDEST SWAP2 POP PUSH2 0x1BCE DUP3 PUSH2 0x1B8D JUMP JUMPDEST PUSH1 0x20 DUP3 ADD SWAP1 POP SWAP2 SWAP1 POP JUMP JUMPDEST PUSH1 0x0 PUSH1 0x20 DUP3 ADD SWAP1 POP DUP2 DUP2 SUB PUSH1 0x0 DUP4 ADD MSTORE PUSH2 0x1BF2 DUP2 PUSH2 0x1BB6 JUMP JUMPDEST SWAP1 POP SWAP2 SWAP1 POP JUMP JUMPDEST PUSH32 0x46696C6520646F6573206E6F7420657869737400000000000000000000000000 PUSH1 0x0 DUP3 ADD MSTORE POP JUMP JUMPDEST PUSH1 0x0 PUSH2 0x1C2F PUSH1 0x13 DUP4 PUSH2 0x180E JUMP JUMPDEST SWAP2 POP PUSH2 0x1C3A DUP3 PUSH2 0x1BF9 JUMP JUMPDEST PUSH1 0x20 DUP3 ADD SWAP1 POP SWAP2 SWAP1 POP JUMP JUMPDEST PUSH1 0x0 PUSH1 0x20 DUP3 ADD SWAP1 POP DUP2 DUP2 SUB PUSH1 0x0 DUP4 ADD MSTORE PUSH2 0x1C5E DUP2 PUSH2 0x1C22 JUMP JUMPDEST SWAP1 POP SWAP2 SWAP1 POP JUMP JUMPDEST PUSH32 0x496E76616C6964206D65726B6C652070726F6F66000000000000000000000000 PUSH1 0x0 DUP3 ADD MSTORE POP JUMP JUMPDEST PUSH1 0x0 PUSH2 0x1C9B PUSH1 0x14 DUP4 PUSH2 0x180E JUMP JUMPDEST SWAP2 POP PUSH2 0x1CA6 DUP3 PUSH2 0x1C65 JUMP JUMPDEST PUSH1 0x20 DUP3 ADD SWAP1 POP SWAP2 SWAP1 POP JUMP JUMPDEST PUSH1 0x0 PUSH1 0x20 DUP3 ADD SWAP1 POP DUP2 DUP2 SUB PUSH1 0x0 DUP4 ADD MSTORE PUSH2 0x1CCA DUP2 PUSH2 0x1C8E JUMP JUMPDEST SWAP1 POP SWAP2 SWAP1 POP JUMP JUMPDEST PUSH32 0x4E487B7100000000000000000000000000000000000000000000000000000000 PUSH1 0x0 MSTORE PUSH1 0x12 PUSH1 0x4 MSTORE PUSH1 0x24 PUSH1 0x0 REVERT JUMPDEST PUSH1 0x0 PUSH2 0x1D0B DUP3 PUSH2 0xFBC JUMP JUMPDEST SWAP2 POP PUSH2 0x1D16 DUP4 PUSH2 0xFBC JUMP JUMPDEST SWAP3 POP DUP3 PUSH2 0x1D26 JUMPI PUSH2 0x1D25 PUSH2 0x1CD1 JUMP JUMPDEST JUMPDEST DUP3 DUP3 DIV SWAP1 POP SWAP3 SWAP2 POP POP JUMP JUMPDEST PUSH1 0x0 PUSH1 0x20 DUP3 ADD SWAP1 POP PUSH2 0x1D46 PUSH1 0x0 DUP4 ADD DUP5 PUSH2 0x17BA JUMP JUMPDEST SWAP3 SWAP2 POP POP JUMP JUMPDEST PUSH32 0x4E487B7100000000000000000000000000000000000000000000000000000000 PUSH1 0x0 MSTORE PUSH1 0x22 PUSH1 0x4 MSTORE PUSH1 0x24 PUSH1 0x0 REVERT JUMPDEST PUSH1 0x0 PUSH1 0x2 DUP3 DIV SWAP1 POP PUSH1 0x1 DUP3 AND DUP1 PUSH2 0x1D93 JUMPI PUSH1 0x7F DUP3 AND SWAP2 POP JUMPDEST PUSH1 0x20 DUP3 LT DUP2 SUB PUSH2 0x1DA6 JUMPI PUSH2 0x1DA5 PUSH2 0x1D4C JUMP JUMPDEST JUMPDEST POP SWAP2 SWAP1 POP JUMP JUMPDEST PUSH32 0x4E487B7100000000000000000000000000000000000000000000000000000000 PUSH1 0x0 MSTORE PUSH1 0x32 PUSH1 0x4 MSTORE PUSH1 0x24 PUSH1 0x0 REVERT JUMPDEST PUSH1 0x0 PUSH2 0x1DE7 DUP3 DUP6 PUSH2 0x1A02 JUMP JUMPDEST PUSH1 0x20 DUP3 ADD SWAP2 POP PUSH2 0x1DF7 DUP3 DUP5 PUSH2 0x1A02 JUMP JUMPDEST PUSH1 0x20 DUP3 ADD SWAP2 POP DUP2 SWAP1 POP SWAP4 SWAP3 POP POP POP JUMP JUMPDEST PUSH1 0x0 PUSH2 0x1E12 DUP3 PUSH2 0xFBC JUMP JUMPDEST SWAP2 POP PUSH32 0xFFFFFFFFFFFFFFFFFFFFFFFFFFFFFFFFFFFFFFFFFFFFFFFFFFFFFFFFFFFFFFFF DUP3 SUB PUSH2 0x1E44 JUMPI PUSH2 0x1E43 PUSH2 0x1ABF JUMP JUMPDEST JUMPDEST PUSH1 0x1 DUP3 ADD SWAP1 POP SWAP2 SWAP1 POP JUMP JUMPDEST PUSH1 0x0 DUP2 SWAP1 POP DUP2 PUSH1 0x0 MSTORE PUSH1 0x20 PUSH1 0x0 KECCAK256 SWAP1 POP SWAP2 SWAP1 POP JUMP JUMPDEST PUSH1 0x0 PUSH1 0x20 PUSH1 0x1F DUP4 ADD DIV SWAP1 POP SWAP2 SWAP1 POP JUMP JUMPDEST PUSH1 0x0 DUP3 DUP3 SHL SWAP1 POP SWAP3 SWAP2 POP POP JUMP JUMPDEST PUSH1 0x0 PUSH1 0x8 DUP4 MUL PUSH2 0x1EB1 PUSH32 0xFFFFFFFFFFFFFFFFFFFFFFFFFFFFFFFFFFFFFFFFFFFFFFFFFFFFFFFFFFFFFFFF DUP3 PUSH2 0x1E74 JUMP JUMPDEST PUSH2 0x1EBB DUP7 DUP4 PUSH2 0x1E74 JUMP JUMPDEST SWAP6 POP DUP1 NOT DUP5 AND SWAP4 POP DUP1 DUP7 AND DUP5 OR SWAP3 POP POP POP SWAP4 SWAP3 POP POP POP JUMP JUMPDEST PUSH1 0x0 DUP2 SWAP1 POP SWAP2 SWAP1 POP JUMP JUMPDEST PUSH1 0x0 PUSH2 0x1EF8 PUSH2 0x1EF3 PUSH2 0x1EEE DUP5 PUSH2 0xFBC JUMP JUMPDEST PUSH2 0x1ED3 JUMP JUMPDEST PUSH2 0xFBC JUMP JUMPDEST SWAP1 POP SWAP2 SWAP1 POP JUMP JUMPDEST PUSH1 0x0 DUP2 SWAP1 POP SWAP2 SWAP1 POP JUMP JUMPDEST PUSH2 0x1F12 DUP4 PUSH2 0x1EDD JUMP JUMPDEST PUSH2 0x1F26 PUSH2 0x1F1E DUP3 PUSH2 0x1EFF JUMP JUMPDEST DUP5 DUP5 SLOAD PUSH2 0x1E81 JUMP JUMPDEST DUP3 SSTORE POP POP POP POP JUMP JUMPDEST PUSH1 0x0 SWAP1 JUMP JUMPDEST PUSH2 0x1F3B PUSH2 0x1F2E JUMP JUMPDEST PUSH2 0x1F46 DUP2 DUP5 DUP5 PUSH2 0x1F09 JUMP JUMPDEST POP POP POP JUMP JUMPDEST JUMPDEST DUP2 DUP2 LT ISZERO PUSH2 0x1F6A JUMPI PUSH2 0x1F5F PUSH1 0x0 DUP3 PUSH2 0x1F33 JUMP JUMPDEST PUSH1 0x1 DUP2 ADD SWAP1 POP PUSH2 0x1F4C JUMP JUMPDEST POP POP JUMP JUMPDEST PUSH1 0x1F DUP3 GT ISZERO PUSH2 0x1FAF JUMPI PUSH2 0x1F80 DUP2 PUSH2 0x1E4F JUMP JUMPDEST PUSH2 0x1F89 DUP5 PUSH2 0x1E64 JUMP JUMPDEST DUP2 ADD PUSH1 0x20 DUP6 LT ISZERO PUSH2 0x1F98 JUMPI DUP2 SWAP1 POP JUMPDEST PUSH2 0x1FAC PUSH2 0x1FA4 DUP6 PUSH2 0x1E64 JUMP JUMPDEST DUP4 ADD DUP3 PUSH2 0x1F4B JUMP JUMPDEST POP POP JUMPDEST POP POP POP JUMP JUMPDEST PUSH1 0x0 DUP3 DUP3 SHR SWAP1 POP SWAP3 SWAP2 POP POP JUMP JUMPDEST PUSH1 0x0 PUSH2 0x1FD2 PUSH1 0x0 NOT DUP5 PUSH1 0x8 MUL PUSH2 0x1FB4 JUMP JUMPDEST NOT DUP1 DUP4 AND SWAP2 POP POP SWAP3 SWAP2 POP POP JUMP JUMPDEST PUSH1 0x0 PUSH2 0x1FEB DUP4 DUP4 PUSH2 0x1FC1 JUMP JUMPDEST SWAP2 POP DUP3 PUSH1 0x2 MUL DUP3 OR SWAP1 POP SWAP3 SWAP2 POP POP JUMP JUMPDEST PUSH2 0x2004 DUP3 PUSH2 0x15A3 JUMP JUMPDEST PUSH8 0xFFFFFFFFFFFFFFFF DUP2 GT ISZERO PUSH2 0x201D JUMPI PUSH2 0x201C PUSH2 0x1188 JUMP JUMPDEST JUMPDEST PUSH2 0x2027 DUP3 SLOAD PUSH2 0x1D7B JUMP JUMPDEST PUSH2 0x2032 DUP3 DUP3 DUP6 PUSH2 0x1F6E JUMP JUMPDEST PUSH1 0x0 PUSH1 0x20 SWAP1 POP PUSH1 0x1F DUP4 GT PUSH1 0x1 DUP2 EQ PUSH2 0x2065 JUMPI PUSH1 0x0 DUP5 ISZERO PUSH2 0x2053 JUMPI DUP3 DUP8 ADD MLOAD SWAP1 POP JUMPDEST PUSH2 0x205D DUP6 DUP3 PUSH2 0x1FDF JUMP JUMPDEST DUP7 SSTORE POP PUSH2 0x20C5 JUMP JUMPDEST PUSH1 0x1F NOT DUP5 AND PUSH2 0x2073 DUP7 PUSH2 0x1E4F JUMP JUMPDEST PUSH1 0x0 JUMPDEST DUP3 DUP2 LT ISZERO PUSH2 0x209B JUMPI DUP5 DUP10 ADD MLOAD DUP3 SSTORE PUSH1 0x1 DUP3 ADD SWAP2 POP PUSH1 0x20 DUP6 ADD SWAP5 POP PUSH1 0x20 DUP2 ADD SWAP1 POP PUSH2 0x2076 JUMP JUMPDEST DUP7 DUP4 LT ISZERO PUSH2 0x20B8 JUMPI DUP5 DUP10 ADD MLOAD PUSH2 0x20B4 PUSH1 0x1F DUP10 AND DUP3 PUSH2 0x1FC1 JUMP JUMPDEST DUP4 SSTORE POP JUMPDEST PUSH1 0x1 PUSH1 0x2 DUP9 MUL ADD DUP9 SSTORE POP POP POP JUMPDEST POP POP POP POP POP POP JUMP INVALID LOG2 PUSH5 0x6970667358 0x22 SLT KECCAK256 DUP12 0xC5 0xAC 0xA9 0x22 SDIV PUSH3 0xF293A3 NOT 0x2A PREVRANDAO DUP16 EXTCODEHASH PUSH20 0xF7D9CAC58A01F68251D25A255C38812664736F6C PUSH4 0x43000814 STOP CALLER "},"methodIdentifiers":{"MIN_NODES()":"9e690271","REWARD_PER_SHARD()":"565b6f40","SHARD_SIZE()":"4f58968c","claimRewards()":"372500ab","files(bytes32)":"98c9adff","getFileDetails(bytes32)":"5b395159","getUserFiles(address)":"1fc37922","shareFile(bytes32,address)":"10e51565","uploadFile(bytes32,uint256,string[])":"25c211dc","userFiles(address,uint256)":"718f38a6","userRewards(address)":"0660f1e8","verifyFile(bytes32,bytes32[])":"50f28d03"}}}}}