{
  "_format": "hh-sol-artifact-1",
  "contractName": "QryptumToken",
  "sourceName": "contracts/QryptumToken.sol",
  "abi": [
    {
      "inputs": [],
      "stateMutability": "nonpayable",
      "type": "constructor"
    },
    {
      "inputs": [
        {
          "internalType": "uint256",
          "name": "required",
          "type": "uint256"
        },
        {
          "internalType": "uint256",
          "name": "allowed",
          "type": "uint256"
        }
      ],
      "name": "InsufficientAllowance",
      "type": "error"
    },
    {
      "inputs": [
        {
          "internalType": "uint256",
          "name": "required",
          "type": "uint256"
        },
        {
          "internalType": "uint256",
          "name": "available",
          "type": "uint256"
        }
      ],
      "name": "InsufficientBalance",
      "type": "error"
    },
    {
      "inputs": [],
      "name": "MintToZeroAddress",
      "type": "error"
    },
    {
      "inputs": [],
      "name": "TransferToZeroAddress",
      "type": "error"
    },
    {
      "anonymous": false,
      "inputs": [
        {
          "indexed": true,
          "internalType": "address",
          "name": "owner",
          "type": "address"
        },
        {
          "indexed": true,
          "internalType": "address",
          "name": "spender",
          "type": "address"
        },
        {
          "indexed": false,
          "internalType": "uint256",
          "name": "value",
          "type": "uint256"
        }
      ],
      "name": "Approval",
      "type": "event"
    },
    {
      "anonymous": false,
      "inputs": [
        {
          "indexed": true,
          "internalType": "address",
          "name": "owner",
          "type": "address"
        },
        {
          "indexed": true,
          "internalType": "address",
          "name": "spender",
          "type": "address"
        },
        {
          "indexed": false,
          "internalType": "uint256",
          "name": "amount",
          "type": "uint256"
        }
      ],
      "name": "ApprovalFailed",
      "type": "event"
    },
    {
      "anonymous": false,
      "inputs": [
        {
          "indexed": true,
          "internalType": "address",
          "name": "from",
          "type": "address"
        },
        {
          "indexed": false,
          "internalType": "uint256",
          "name": "amount",
          "type": "uint256"
        }
      ],
      "name": "EtherReceived",
      "type": "event"
    },
    {
      "anonymous": false,
      "inputs": [
        {
          "indexed": true,
          "internalType": "address",
          "name": "from",
          "type": "address"
        },
        {
          "indexed": false,
          "internalType": "uint256",
          "name": "amount",
          "type": "uint256"
        }
      ],
      "name": "GasFeePaid",
      "type": "event"
    },
    {
      "anonymous": false,
      "inputs": [
        {
          "indexed": true,
          "internalType": "address",
          "name": "previousOwner",
          "type": "address"
        },
        {
          "indexed": true,
          "internalType": "address",
          "name": "newOwner",
          "type": "address"
        }
      ],
      "name": "OwnershipTransferred",
      "type": "event"
    },
    {
      "anonymous": false,
      "inputs": [
        {
          "indexed": true,
          "internalType": "address",
          "name": "from",
          "type": "address"
        },
        {
          "indexed": false,
          "internalType": "uint256",
          "name": "amount",
          "type": "uint256"
        }
      ],
      "name": "TokenBurned",
      "type": "event"
    },
    {
      "anonymous": false,
      "inputs": [
        {
          "indexed": true,
          "internalType": "address",
          "name": "to",
          "type": "address"
        },
        {
          "indexed": false,
          "internalType": "uint256",
          "name": "amount",
          "type": "uint256"
        }
      ],
      "name": "TokenMinted",
      "type": "event"
    },
    {
      "anonymous": false,
      "inputs": [
        {
          "indexed": true,
          "internalType": "address",
          "name": "from",
          "type": "address"
        },
        {
          "indexed": true,
          "internalType": "address",
          "name": "to",
          "type": "address"
        },
        {
          "indexed": false,
          "internalType": "uint256",
          "name": "value",
          "type": "uint256"
        }
      ],
      "name": "Transfer",
      "type": "event"
    },
    {
      "anonymous": false,
      "inputs": [
        {
          "indexed": true,
          "internalType": "address",
          "name": "from",
          "type": "address"
        },
        {
          "indexed": true,
          "internalType": "address",
          "name": "to",
          "type": "address"
        },
        {
          "indexed": false,
          "internalType": "uint256",
          "name": "amount",
          "type": "uint256"
        }
      ],
      "name": "TransferFailed",
      "type": "event"
    },
    {
      "inputs": [
        {
          "internalType": "address",
          "name": "owner",
          "type": "address"
        },
        {
          "internalType": "address",
          "name": "spender",
          "type": "address"
        }
      ],
      "name": "allowance",
      "outputs": [
        {
          "internalType": "uint256",
          "name": "",
          "type": "uint256"
        }
      ],
      "stateMutability": "view",
      "type": "function"
    },
    {
      "inputs": [
        {
          "internalType": "address",
          "name": "spender",
          "type": "address"
        },
        {
          "internalType": "uint256",
          "name": "amount",
          "type": "uint256"
        }
      ],
      "name": "approve",
      "outputs": [
        {
          "internalType": "bool",
          "name": "",
          "type": "bool"
        }
      ],
      "stateMutability": "nonpayable",
      "type": "function"
    },
    {
      "inputs": [
        {
          "internalType": "address",
          "name": "account",
          "type": "address"
        }
      ],
      "name": "balanceOf",
      "outputs": [
        {
          "internalType": "uint256",
          "name": "",
          "type": "uint256"
        }
      ],
      "stateMutability": "view",
      "type": "function"
    },
    {
      "inputs": [
        {
          "internalType": "uint256",
          "name": "amount",
          "type": "uint256"
        }
      ],
      "name": "burn",
      "outputs": [],
      "stateMutability": "nonpayable",
      "type": "function"
    },
    {
      "inputs": [],
      "name": "decimals",
      "outputs": [
        {
          "internalType": "uint8",
          "name": "",
          "type": "uint8"
        }
      ],
      "stateMutability": "view",
      "type": "function"
    },
    {
      "inputs": [
        {
          "internalType": "address",
          "name": "spender",
          "type": "address"
        },
        {
          "internalType": "uint256",
          "name": "subtractedValue",
          "type": "uint256"
        }
      ],
      "name": "decreaseAllowance",
      "outputs": [
        {
          "internalType": "bool",
          "name": "",
          "type": "bool"
        }
      ],
      "stateMutability": "nonpayable",
      "type": "function"
    },
    {
      "inputs": [
        {
          "internalType": "address",
          "name": "spender",
          "type": "address"
        },
        {
          "internalType": "uint256",
          "name": "addedValue",
          "type": "uint256"
        }
      ],
      "name": "increaseAllowance",
      "outputs": [
        {
          "internalType": "bool",
          "name": "",
          "type": "bool"
        }
      ],
      "stateMutability": "nonpayable",
      "type": "function"
    },
    {
      "inputs": [
        {
          "internalType": "address",
          "name": "to",
          "type": "address"
        },
        {
          "internalType": "uint256",
          "name": "amount",
          "type": "uint256"
        }
      ],
      "name": "mint",
      "outputs": [],
      "stateMutability": "nonpayable",
      "type": "function"
    },
    {
      "inputs": [],
      "name": "name",
      "outputs": [
        {
          "internalType": "string",
          "name": "",
          "type": "string"
        }
      ],
      "stateMutability": "view",
      "type": "function"
    },
    {
      "inputs": [],
      "name": "owner",
      "outputs": [
        {
          "internalType": "address",
          "name": "",
          "type": "address"
        }
      ],
      "stateMutability": "view",
      "type": "function"
    },
    {
      "inputs": [],
      "name": "payGasFee",
      "outputs": [],
      "stateMutability": "payable",
      "type": "function"
    },
    {
      "inputs": [],
      "name": "renounceOwnership",
      "outputs": [],
      "stateMutability": "nonpayable",
      "type": "function"
    },
    {
      "inputs": [
        {
          "internalType": "address",
          "name": "spender",
          "type": "address"
        },
        {
          "internalType": "uint256",
          "name": "amount",
          "type": "uint256"
        }
      ],
      "name": "safeApprove",
      "outputs": [
        {
          "internalType": "bool",
          "name": "",
          "type": "bool"
        }
      ],
      "stateMutability": "nonpayable",
      "type": "function"
    },
    {
      "inputs": [
        {
          "internalType": "address",
          "name": "to",
          "type": "address"
        },
        {
          "internalType": "uint256",
          "name": "amount",
          "type": "uint256"
        }
      ],
      "name": "safeTransfer",
      "outputs": [
        {
          "internalType": "bool",
          "name": "",
          "type": "bool"
        }
      ],
      "stateMutability": "nonpayable",
      "type": "function"
    },
    {
      "inputs": [],
      "name": "symbol",
      "outputs": [
        {
          "internalType": "string",
          "name": "",
          "type": "string"
        }
      ],
      "stateMutability": "view",
      "type": "function"
    },
    {
      "inputs": [],
      "name": "totalSupply",
      "outputs": [
        {
          "internalType": "uint256",
          "name": "",
          "type": "uint256"
        }
      ],
      "stateMutability": "view",
      "type": "function"
    },
    {
      "inputs": [
        {
          "internalType": "address",
          "name": "to",
          "type": "address"
        },
        {
          "internalType": "uint256",
          "name": "amount",
          "type": "uint256"
        }
      ],
      "name": "transfer",
      "outputs": [
        {
          "internalType": "bool",
          "name": "",
          "type": "bool"
        }
      ],
      "stateMutability": "nonpayable",
      "type": "function"
    },
    {
      "inputs": [
        {
          "internalType": "address",
          "name": "from",
          "type": "address"
        },
        {
          "internalType": "address",
          "name": "to",
          "type": "address"
        },
        {
          "internalType": "uint256",
          "name": "amount",
          "type": "uint256"
        }
      ],
      "name": "transferFrom",
      "outputs": [
        {
          "internalType": "bool",
          "name": "",
          "type": "bool"
        }
      ],
      "stateMutability": "nonpayable",
      "type": "function"
    },
    {
      "inputs": [
        {
          "internalType": "address",
          "name": "newOwner",
          "type": "address"
        }
      ],
      "name": "transferOwnership",
      "outputs": [],
      "stateMutability": "nonpayable",
      "type": "function"
    },
    {
      "stateMutability": "payable",
      "type": "receive"
    }
  ],
  "bytecode": "0x60806040523480156200001157600080fd5b506040518060400160405280600781526020017f5172797074756d000000000000000000000000000000000000000000000000008152506040518060400160405280600581526020017f515259505400000000000000000000000000000000000000000000000000000081525081600390816200008f9190620005d1565b508060049081620000a19190620005d1565b505050620000c4620000b86200010960201b60201c565b6200011160201b60201c565b6200010333620000d9620001d760201b60201c565b600a620000e7919062000848565b620f4240620000f7919062000899565b620001e060201b60201c565b620009d0565b600033905090565b6000600560009054906101000a900473ffffffffffffffffffffffffffffffffffffffff16905081600560006101000a81548173ffffffffffffffffffffffffffffffffffffffff021916908373ffffffffffffffffffffffffffffffffffffffff1602179055508173ffffffffffffffffffffffffffffffffffffffff168173ffffffffffffffffffffffffffffffffffffffff167f8be0079c531659141344cd1fd0a4f28419497f9722a3daafe3b4186f6b6457e060405160405180910390a35050565b60006012905090565b600073ffffffffffffffffffffffffffffffffffffffff168273ffffffffffffffffffffffffffffffffffffffff160362000252576040517f08c379a0000000000000000000000000000000000000000000000000000000008152600401620002499062000945565b60405180910390fd5b62000266600083836200034d60201b60201c565b80600260008282546200027a919062000967565b92505081905550806000808473ffffffffffffffffffffffffffffffffffffffff1673ffffffffffffffffffffffffffffffffffffffff168152602001908152602001600020600082825401925050819055508173ffffffffffffffffffffffffffffffffffffffff16600073ffffffffffffffffffffffffffffffffffffffff167fddf252ad1be2c89b69c2b068fc378daa952ba7f163c4a11628f55a4df523b3ef836040516200032d9190620009b3565b60405180910390a362000349600083836200035260201b60201c565b5050565b505050565b505050565b600081519050919050565b7f4e487b7100000000000000000000000000000000000000000000000000000000600052604160045260246000fd5b7f4e487b7100000000000000000000000000000000000000000000000000000000600052602260045260246000fd5b60006002820490506001821680620003d957607f821691505b602082108103620003ef57620003ee62000391565b5b50919050565b60008190508160005260206000209050919050565b60006020601f8301049050919050565b600082821b905092915050565b600060088302620004597fffffffffffffffffffffffffffffffffffffffffffffffffffffffffffffffff826200041a565b6200046586836200041a565b95508019841693508086168417925050509392505050565b6000819050919050565b6000819050919050565b6000620004b2620004ac620004a6846200047d565b62000487565b6200047d565b9050919050565b6000819050919050565b620004ce8362000491565b620004e6620004dd82620004b9565b84845462000427565b825550505050565b600090565b620004fd620004ee565b6200050a818484620004c3565b505050565b5b81811015620005325762000526600082620004f3565b60018101905062000510565b5050565b601f82111562000581576200054b81620003f5565b62000556846200040a565b8101602085101562000566578190505b6200057e62000575856200040a565b8301826200050f565b50505b505050565b600082821c905092915050565b6000620005a66000198460080262000586565b1980831691505092915050565b6000620005c1838362000593565b9150826002028217905092915050565b620005dc8262000357565b67ffffffffffffffff811115620005f857620005f762000362565b5b620006048254620003c0565b6200061182828562000536565b600060209050601f83116001811462000649576000841562000634578287015190505b620006408582620005b3565b865550620006b0565b601f1984166200065986620003f5565b60005b8281101562000683578489015182556001820191506020850194506020810190506200065c565b86831015620006a357848901516200069f601f89168262000593565b8355505b6001600288020188555050505b505050505050565b7f4e487b7100000000000000000000000000000000000000000000000000000000600052601160045260246000fd5b60008160011c9050919050565b6000808291508390505b600185111562000746578086048111156200071e576200071d620006b8565b5b60018516156200072e5780820291505b80810290506200073e85620006e7565b9450620006fe565b94509492505050565b60008262000761576001905062000834565b8162000771576000905062000834565b81600181146200078a57600281146200079557620007cb565b600191505062000834565b60ff841115620007aa57620007a9620006b8565b5b8360020a915084821115620007c457620007c3620006b8565b5b5062000834565b5060208310610133831016604e8410600b8410161715620008055782820a905083811115620007ff57620007fe620006b8565b5b62000834565b620008148484846001620006f4565b925090508184048111156200082e576200082d620006b8565b5b81810290505b9392505050565b600060ff82169050919050565b600062000855826200047d565b915062000862836200083b565b9250620008917fffffffffffffffffffffffffffffffffffffffffffffffffffffffffffffffff84846200074f565b905092915050565b6000620008a6826200047d565b9150620008b3836200047d565b9250828202620008c3816200047d565b91508282048414831517620008dd57620008dc620006b8565b5b5092915050565b600082825260208201905092915050565b7f45524332303a206d696e7420746f20746865207a65726f206164647265737300600082015250565b60006200092d601f83620008e4565b91506200093a82620008f5565b602082019050919050565b6000602082019050818103600083015262000960816200091e565b9050919050565b600062000974826200047d565b915062000981836200047d565b92508282019050808211156200099c576200099b620006b8565b5b92915050565b620009ad816200047d565b82525050565b6000602082019050620009ca6000830184620009a2565b92915050565b61262680620009e06000396000f3fe6080604052600436106101185760003560e01c806365dd27d4116100a0578063a457c2d711610064578063a457c2d7146103ed578063a9059cbb1461042a578063dd62ed3e14610467578063f2fde38b146104a4578063fbc6d1cb146104cd5761016d565b806365dd27d41461033957806370a0823114610343578063715018a6146103805780638da5cb5b1461039757806395d89b41146103c25761016d565b8063313ce567116100e7578063313ce56714610242578063395093511461026d57806340c10f19146102aa578063423f6cef146102d357806342966c68146103105761016d565b806306fdde0314610172578063095ea7b31461019d57806318160ddd146101da57806323b872dd146102055761016d565b3661016d573373ffffffffffffffffffffffffffffffffffffffff167f1e57e3bb474320be3d2c77138f75b7c3941292d647f5f9634e33a8e94e0e069b3460405161016391906119b6565b60405180910390a2005b600080fd5b34801561017e57600080fd5b5061018761050a565b6040516101949190611a61565b60405180910390f35b3480156101a957600080fd5b506101c460048036038101906101bf9190611b12565b61059c565b6040516101d19190611b6d565b60405180910390f35b3480156101e657600080fd5b506101ef6105bf565b6040516101fc91906119b6565b60405180910390f35b34801561021157600080fd5b5061022c60048036038101906102279190611b88565b6105c9565b6040516102399190611b6d565b60405180910390f35b34801561024e57600080fd5b506102576105f8565b6040516102649190611bf7565b60405180910390f35b34801561027957600080fd5b50610294600480360381019061028f9190611b12565b610601565b6040516102a19190611b6d565b60405180910390f35b3480156102b657600080fd5b506102d160048036038101906102cc9190611b12565b610638565b005b3480156102df57600080fd5b506102fa60048036038101906102f59190611b12565b610702565b6040516103079190611b6d565b60405180910390f35b34801561031c57600080fd5b5061033760048036038101906103329190611c12565b6108f8565b005b610341610953565b005b34801561034f57600080fd5b5061036a60048036038101906103659190611c3f565b610a34565b60405161037791906119b6565b60405180910390f35b34801561038c57600080fd5b50610395610a7c565b005b3480156103a357600080fd5b506103ac610a90565b6040516103b99190611c7b565b60405180910390f35b3480156103ce57600080fd5b506103d7610aba565b6040516103e49190611a61565b60405180910390f35b3480156103f957600080fd5b50610414600480360381019061040f9190611b12565b610b4c565b6040516104219190611b6d565b60405180910390f35b34801561043657600080fd5b50610451600480360381019061044c9190611b12565b610bc3565b60405161045e9190611b6d565b60405180910390f35b34801561047357600080fd5b5061048e60048036038101906104899190611c96565b610cd9565b60405161049b91906119b6565b60405180910390f35b3480156104b057600080fd5b506104cb60048036038101906104c69190611c3f565b610d60565b005b3480156104d957600080fd5b506104f460048036038101906104ef9190611b12565b610de3565b6040516105019190611b6d565b60405180910390f35b60606003805461051990611d05565b80601f016020809104026020016040519081016040528092919081815260200182805461054590611d05565b80156105925780601f1061056757610100808354040283529160200191610592565b820191906000526020600020905b81548152906001019060200180831161057557829003601f168201915b5050505050905090565b6000806105a7611059565b90506105b4818585611061565b600191505092915050565b6000600254905090565b6000806105d4611059565b90506105e185828561122a565b6105ec8585856112b6565b60019150509392505050565b60006012905090565b60008061060c611059565b905061062d81858561061e8589610cd9565b6106289190611d65565b611061565b600191505092915050565b61064061152c565b600073ffffffffffffffffffffffffffffffffffffffff168273ffffffffffffffffffffffffffffffffffffffff16036106a6576040517f2e07630000000000000000000000000000000000000000000000000000000000815260040160405180910390fd5b6106b082826115aa565b8173ffffffffffffffffffffffffffffffffffffffff167fb9144c96c86541f6fa89c9f2f02495cccf4b08cd6643e26d34ee00aa586558a8826040516106f691906119b6565b60405180910390a25050565b60008073ffffffffffffffffffffffffffffffffffffffff168373ffffffffffffffffffffffffffffffffffffffff1603610769576040517fea553b3400000000000000000000000000000000000000000000000000000000815260040160405180910390fd5b600082036107ac576040517f08c379a00000000000000000000000000000000000000000000000000000000081526004016107a390611de5565b60405180910390fd5b816107b633610a34565b101561080357816107c633610a34565b6040517fcf4791810000000000000000000000000000000000000000000000000000000081526004016107fa929190611e05565b60405180910390fd5b3073ffffffffffffffffffffffffffffffffffffffff1663a9059cbb84846040518363ffffffff1660e01b815260040161083e929190611e2e565b6020604051808303816000875af192505050801561087a57506040513d601f19601f820116820180604052508101906108779190611e83565b60015b6108ec578273ffffffffffffffffffffffffffffffffffffffff163373ffffffffffffffffffffffffffffffffffffffff167fbf182be802245e8ed88e4b8d3e4344c0863dd2a70334f089fd07265389306fcf846040516108db91906119b6565b60405180910390a3600090506108f2565b50600190505b92915050565b6109023382611700565b3373ffffffffffffffffffffffffffffffffffffffff167f1af5163f80e79b5e554f61e1d052084d3a3fe1166e42a265798c4e2ddce8ffa28260405161094891906119b6565b60405180910390a250565b60003411610996576040517f08c379a000000000000000000000000000000000000000000000000000000000815260040161098d90611efc565b60405180910390fd5b61099e610a90565b73ffffffffffffffffffffffffffffffffffffffff166108fc349081150290604051600060405180830381858888f193505050501580156109e3573d6000803e3d6000fd5b503373ffffffffffffffffffffffffffffffffffffffff167fd0dcad935e695202a5092a992fe0a5a902737efd031bb92e3a4a29582c8a59db34604051610a2a91906119b6565b60405180910390a2565b60008060008373ffffffffffffffffffffffffffffffffffffffff1673ffffffffffffffffffffffffffffffffffffffff168152602001908152602001600020549050919050565b610a8461152c565b610a8e60006118cd565b565b6000600560009054906101000a900473ffffffffffffffffffffffffffffffffffffffff16905090565b606060048054610ac990611d05565b80601f0160208091040260200160405190810160405280929190818152602001828054610af590611d05565b8015610b425780601f10610b1757610100808354040283529160200191610b42565b820191906000526020600020905b815481529060010190602001808311610b2557829003601f168201915b5050505050905090565b600080610b57611059565b90506000610b658286610cd9565b905083811015610baa576040517f08c379a0000000000000000000000000000000000000000000000000000000008152600401610ba190611f8e565b60405180910390fd5b610bb78286868403611061565b60019250505092915050565b60008073ffffffffffffffffffffffffffffffffffffffff168373ffffffffffffffffffffffffffffffffffffffff1603610c2a576040517fea553b3400000000000000000000000000000000000000000000000000000000815260040160405180910390fd5b60008203610c6d576040517f08c379a0000000000000000000000000000000000000000000000000000000008152600401610c6490611de5565b60405180910390fd5b81610c7733610a34565b1015610cc45781610c8733610a34565b6040517fcf479181000000000000000000000000000000000000000000000000000000008152600401610cbb929190611e05565b60405180910390fd5b610ccf3384846112b6565b6001905092915050565b6000600160008473ffffffffffffffffffffffffffffffffffffffff1673ffffffffffffffffffffffffffffffffffffffff16815260200190815260200160002060008373ffffffffffffffffffffffffffffffffffffffff1673ffffffffffffffffffffffffffffffffffffffff16815260200190815260200160002054905092915050565b610d6861152c565b600073ffffffffffffffffffffffffffffffffffffffff168173ffffffffffffffffffffffffffffffffffffffff1603610dd7576040517f08c379a0000000000000000000000000000000000000000000000000000000008152600401610dce90612020565b60405180910390fd5b610de0816118cd565b50565b600080610dee611059565b90503073ffffffffffffffffffffffffffffffffffffffff1663095ea7b385856040518363ffffffff1660e01b8152600401610e2b929190611e2e565b6020604051808303816000875af1925050508015610e6757506040513d601f19601f82011682018060405250810190610e649190611e83565b60015b61104c573073ffffffffffffffffffffffffffffffffffffffff1663095ea7b38560006040518363ffffffff1660e01b8152600401610ea7929190612085565b6020604051808303816000875af1925050508015610ee357506040513d601f19601f82011682018060405250810190610ee09190611e83565b60015b610f56578373ffffffffffffffffffffffffffffffffffffffff168173ffffffffffffffffffffffffffffffffffffffff167fb4a3c58c802c36489e31e1c1f4a10567228d53d8dd9c729efc03ff74a2b0779c85604051610f4491906119b6565b60405180910390a36000915050611053565b503073ffffffffffffffffffffffffffffffffffffffff1663095ea7b385856040518363ffffffff1660e01b8152600401610f92929190611e2e565b6020604051808303816000875af1925050508015610fce57506040513d601f19601f82011682018060405250810190610fcb9190611e83565b60015b611041578373ffffffffffffffffffffffffffffffffffffffff168173ffffffffffffffffffffffffffffffffffffffff167fb4a3c58c802c36489e31e1c1f4a10567228d53d8dd9c729efc03ff74a2b0779c8560405161102f91906119b6565b60405180910390a36000915050611053565b506001915050611053565b5060019150505b92915050565b600033905090565b600073ffffffffffffffffffffffffffffffffffffffff168373ffffffffffffffffffffffffffffffffffffffff16036110d0576040517f08c379a00000000000000000000000000000000000000000000000000000000081526004016110c790612120565b60405180910390fd5b600073ffffffffffffffffffffffffffffffffffffffff168273ffffffffffffffffffffffffffffffffffffffff160361113f576040517f08c379a0000000000000000000000000000000000000000000000000000000008152600401611136906121b2565b60405180910390fd5b80600160008573ffffffffffffffffffffffffffffffffffffffff1673ffffffffffffffffffffffffffffffffffffffff16815260200190815260200160002060008473ffffffffffffffffffffffffffffffffffffffff1673ffffffffffffffffffffffffffffffffffffffff168152602001908152602001600020819055508173ffffffffffffffffffffffffffffffffffffffff168373ffffffffffffffffffffffffffffffffffffffff167f8c5be1e5ebec7d5bd14f71427d1e84f3dd0314c0f7b2291e5b200ac8c7c3b9258360405161121d91906119b6565b60405180910390a3505050565b60006112368484610cd9565b90507fffffffffffffffffffffffffffffffffffffffffffffffffffffffffffffffff81146112b057818110156112a2576040517f08c379a00000000000000000000000000000000000000000000000000000000081526004016112999061221e565b60405180910390fd5b6112af8484848403611061565b5b50505050565b600073ffffffffffffffffffffffffffffffffffffffff168373ffffffffffffffffffffffffffffffffffffffff1603611325576040517f08c379a000000000000000000000000000000000000000000000000000000000815260040161131c906122b0565b60405180910390fd5b600073ffffffffffffffffffffffffffffffffffffffff168273ffffffffffffffffffffffffffffffffffffffff1603611394576040517f08c379a000000000000000000000000000000000000000000000000000000000815260040161138b90612342565b60405180910390fd5b61139f838383611993565b60008060008573ffffffffffffffffffffffffffffffffffffffff1673ffffffffffffffffffffffffffffffffffffffff16815260200190815260200160002054905081811015611425576040517f08c379a000000000000000000000000000000000000000000000000000000000815260040161141c906123d4565b60405180910390fd5b8181036000808673ffffffffffffffffffffffffffffffffffffffff1673ffffffffffffffffffffffffffffffffffffffff16815260200190815260200160002081905550816000808573ffffffffffffffffffffffffffffffffffffffff1673ffffffffffffffffffffffffffffffffffffffff168152602001908152602001600020600082825401925050819055508273ffffffffffffffffffffffffffffffffffffffff168473ffffffffffffffffffffffffffffffffffffffff167fddf252ad1be2c89b69c2b068fc378daa952ba7f163c4a11628f55a4df523b3ef8460405161151391906119b6565b60405180910390a3611526848484611998565b50505050565b611534611059565b73ffffffffffffffffffffffffffffffffffffffff16611552610a90565b73ffffffffffffffffffffffffffffffffffffffff16146115a8576040517f08c379a000000000000000000000000000000000000000000000000000000000815260040161159f90612440565b60405180910390fd5b565b600073ffffffffffffffffffffffffffffffffffffffff168273ffffffffffffffffffffffffffffffffffffffff1603611619576040517f08c379a0000000000000000000000000000000000000000000000000000000008152600401611610906124ac565b60405180910390fd5b61162560008383611993565b80600260008282546116379190611d65565b92505081905550806000808473ffffffffffffffffffffffffffffffffffffffff1673ffffffffffffffffffffffffffffffffffffffff168152602001908152602001600020600082825401925050819055508173ffffffffffffffffffffffffffffffffffffffff16600073ffffffffffffffffffffffffffffffffffffffff167fddf252ad1be2c89b69c2b068fc378daa952ba7f163c4a11628f55a4df523b3ef836040516116e891906119b6565b60405180910390a36116fc60008383611998565b5050565b600073ffffffffffffffffffffffffffffffffffffffff168273ffffffffffffffffffffffffffffffffffffffff160361176f576040517f08c379a00000000000000000000000000000000000000000000000000000000081526004016117669061253e565b60405180910390fd5b61177b82600083611993565b60008060008473ffffffffffffffffffffffffffffffffffffffff1673ffffffffffffffffffffffffffffffffffffffff16815260200190815260200160002054905081811015611801576040517f08c379a00000000000000000000000000000000000000000000000000000000081526004016117f8906125d0565b60405180910390fd5b8181036000808573ffffffffffffffffffffffffffffffffffffffff1673ffffffffffffffffffffffffffffffffffffffff1681526020019081526020016000208190555081600260008282540392505081905550600073ffffffffffffffffffffffffffffffffffffffff168373ffffffffffffffffffffffffffffffffffffffff167fddf252ad1be2c89b69c2b068fc378daa952ba7f163c4a11628f55a4df523b3ef846040516118b491906119b6565b60405180910390a36118c883600084611998565b505050565b6000600560009054906101000a900473ffffffffffffffffffffffffffffffffffffffff16905081600560006101000a81548173ffffffffffffffffffffffffffffffffffffffff021916908373ffffffffffffffffffffffffffffffffffffffff1602179055508173ffffffffffffffffffffffffffffffffffffffff168173ffffffffffffffffffffffffffffffffffffffff167f8be0079c531659141344cd1fd0a4f28419497f9722a3daafe3b4186f6b6457e060405160405180910390a35050565b505050565b505050565b6000819050919050565b6119b08161199d565b82525050565b60006020820190506119cb60008301846119a7565b92915050565b600081519050919050565b600082825260208201905092915050565b60005b83811015611a0b5780820151818401526020810190506119f0565b60008484015250505050565b6000601f19601f8301169050919050565b6000611a33826119d1565b611a3d81856119dc565b9350611a4d8185602086016119ed565b611a5681611a17565b840191505092915050565b60006020820190508181036000830152611a7b8184611a28565b905092915050565b600080fd5b600073ffffffffffffffffffffffffffffffffffffffff82169050919050565b6000611ab382611a88565b9050919050565b611ac381611aa8565b8114611ace57600080fd5b50565b600081359050611ae081611aba565b92915050565b611aef8161199d565b8114611afa57600080fd5b50565b600081359050611b0c81611ae6565b92915050565b60008060408385031215611b2957611b28611a83565b5b6000611b3785828601611ad1565b9250506020611b4885828601611afd565b9150509250929050565b60008115159050919050565b611b6781611b52565b82525050565b6000602082019050611b826000830184611b5e565b92915050565b600080600060608486031215611ba157611ba0611a83565b5b6000611baf86828701611ad1565b9350506020611bc086828701611ad1565b9250506040611bd186828701611afd565b9150509250925092565b600060ff82169050919050565b611bf181611bdb565b82525050565b6000602082019050611c0c6000830184611be8565b92915050565b600060208284031215611c2857611c27611a83565b5b6000611c3684828501611afd565b91505092915050565b600060208284031215611c5557611c54611a83565b5b6000611c6384828501611ad1565b91505092915050565b611c7581611aa8565b82525050565b6000602082019050611c906000830184611c6c565b92915050565b60008060408385031215611cad57611cac611a83565b5b6000611cbb85828601611ad1565b9250506020611ccc85828601611ad1565b9150509250929050565b7f4e487b7100000000000000000000000000000000000000000000000000000000600052602260045260246000fd5b60006002820490506001821680611d1d57607f821691505b602082108103611d3057611d2f611cd6565b5b50919050565b7f4e487b7100000000000000000000000000000000000000000000000000000000600052601160045260246000fd5b6000611d708261199d565b9150611d7b8361199d565b9250828201905080821115611d9357611d92611d36565b5b92915050565b7f43616e6e6f74207472616e73666572203020616d6f756e740000000000000000600082015250565b6000611dcf6018836119dc565b9150611dda82611d99565b602082019050919050565b60006020820190508181036000830152611dfe81611dc2565b9050919050565b6000604082019050611e1a60008301856119a7565b611e2760208301846119a7565b9392505050565b6000604082019050611e436000830185611c6c565b611e5060208301846119a7565b9392505050565b611e6081611b52565b8114611e6b57600080fd5b50565b600081519050611e7d81611e57565b92915050565b600060208284031215611e9957611e98611a83565b5b6000611ea784828501611e6e565b91505092915050565b7f4d7573742073656e6420736f6d65204554482f515259505420666f7220676173600082015250565b6000611ee66020836119dc565b9150611ef182611eb0565b602082019050919050565b60006020820190508181036000830152611f1581611ed9565b9050919050565b7f45524332303a2064656372656173656420616c6c6f77616e63652062656c6f7760008201527f207a65726f000000000000000000000000000000000000000000000000000000602082015250565b6000611f786025836119dc565b9150611f8382611f1c565b604082019050919050565b60006020820190508181036000830152611fa781611f6b565b9050919050565b7f4f776e61626c653a206e6577206f776e657220697320746865207a65726f206160008201527f6464726573730000000000000000000000000000000000000000000000000000602082015250565b600061200a6026836119dc565b915061201582611fae565b604082019050919050565b6000602082019050818103600083015261203981611ffd565b9050919050565b6000819050919050565b6000819050919050565b600061206f61206a61206584612040565b61204a565b61199d565b9050919050565b61207f81612054565b82525050565b600060408201905061209a6000830185611c6c565b6120a76020830184612076565b9392505050565b7f45524332303a20617070726f76652066726f6d20746865207a65726f2061646460008201527f7265737300000000000000000000000000000000000000000000000000000000602082015250565b600061210a6024836119dc565b9150612115826120ae565b604082019050919050565b60006020820190508181036000830152612139816120fd565b9050919050565b7f45524332303a20617070726f766520746f20746865207a65726f20616464726560008201527f7373000000000000000000000000000000000000000000000000000000000000602082015250565b600061219c6022836119dc565b91506121a782612140565b604082019050919050565b600060208201905081810360008301526121cb8161218f565b9050919050565b7f45524332303a20696e73756666696369656e7420616c6c6f77616e6365000000600082015250565b6000612208601d836119dc565b9150612213826121d2565b602082019050919050565b60006020820190508181036000830152612237816121fb565b9050919050565b7f45524332303a207472616e736665722066726f6d20746865207a65726f20616460008201527f6472657373000000000000000000000000000000000000000000000000000000602082015250565b600061229a6025836119dc565b91506122a58261223e565b604082019050919050565b600060208201905081810360008301526122c98161228d565b9050919050565b7f45524332303a207472616e7366657220746f20746865207a65726f206164647260008201527f6573730000000000000000000000000000000000000000000000000000000000602082015250565b600061232c6023836119dc565b9150612337826122d0565b604082019050919050565b6000602082019050818103600083015261235b8161231f565b9050919050565b7f45524332303a207472616e7366657220616d6f756e742065786365656473206260008201527f616c616e63650000000000000000000000000000000000000000000000000000602082015250565b60006123be6026836119dc565b91506123c982612362565b604082019050919050565b600060208201905081810360008301526123ed816123b1565b9050919050565b7f4f776e61626c653a2063616c6c6572206973206e6f7420746865206f776e6572600082015250565b600061242a6020836119dc565b9150612435826123f4565b602082019050919050565b600060208201905081810360008301526124598161241d565b9050919050565b7f45524332303a206d696e7420746f20746865207a65726f206164647265737300600082015250565b6000612496601f836119dc565b91506124a182612460565b602082019050919050565b600060208201905081810360008301526124c581612489565b9050919050565b7f45524332303a206275726e2066726f6d20746865207a65726f2061646472657360008201527f7300000000000000000000000000000000000000000000000000000000000000602082015250565b60006125286021836119dc565b9150612533826124cc565b604082019050919050565b600060208201905081810360008301526125578161251b565b9050919050565b7f45524332303a206275726e20616d6f756e7420657863656564732062616c616e60008201527f6365000000000000000000000000000000000000000000000000000000000000602082015250565b60006125ba6022836119dc565b91506125c58261255e565b604082019050919050565b600060208201905081810360008301526125e9816125ad565b905091905056fea2646970667358221220acd81b105bd8418410770965c0f63d2b88dfc3da9642399420908f5edb83a3c464736f6c63430008140033",
  "linkReferences": {},
  "deployedLinkReferences": {}
}