{
  "_format": "hh-sol-artifact-1",
  "contractName": "FileStorage",
  "sourceName": "contracts/FileStorage.sol",
  "abi": [
    {
      "anonymous": false,
      "inputs": [
        {
          "indexed": true,
          "internalType": "bytes32",
          "name": "fileId",
          "type": "bytes32"
        },
        {
          "indexed": false,
          "internalType": "address",
          "name": "from",
          "type": "address"
        },
        {
          "indexed": false,
          "internalType": "address",
          "name": "to",
          "type": "address"
        }
      ],
      "name": "FileShared",
      "type": "event"
    },
    {
      "anonymous": false,
      "inputs": [
        {
          "indexed": true,
          "internalType": "bytes32",
          "name": "fileId",
          "type": "bytes32"
        },
        {
          "indexed": false,
          "internalType": "address",
          "name": "uploader",
          "type": "address"
        },
        {
          "indexed": false,
          "internalType": "uint256",
          "name": "shards",
          "type": "uint256"
        }
      ],
      "name": "FileUploaded",
      "type": "event"
    },
    {
      "anonymous": false,
      "inputs": [
        {
          "indexed": true,
          "internalType": "bytes32",
          "name": "fileId",
          "type": "bytes32"
        },
        {
          "indexed": false,
          "internalType": "address",
          "name": "verifier",
          "type": "address"
        }
      ],
      "name": "FileVerified",
      "type": "event"
    },
    {
      "anonymous": false,
      "inputs": [
        {
          "indexed": true,
          "internalType": "address",
          "name": "recipient",
          "type": "address"
        },
        {
          "indexed": false,
          "internalType": "uint256",
          "name": "amount",
          "type": "uint256"
        }
      ],
      "name": "RewardPaid",
      "type": "event"
    },
    {
      "stateMutability": "payable",
      "type": "fallback"
    },
    {
      "inputs": [],
      "name": "MIN_NODES",
      "outputs": [
        {
          "internalType": "uint256",
          "name": "",
          "type": "uint256"
        }
      ],
      "stateMutability": "view",
      "type": "function"
    },
    {
      "inputs": [],
      "name": "REWARD_PER_SHARD",
      "outputs": [
        {
          "internalType": "uint256",
          "name": "",
          "type": "uint256"
        }
      ],
      "stateMutability": "view",
      "type": "function"
    },
    {
      "inputs": [],
      "name": "SHARD_SIZE",
      "outputs": [
        {
          "internalType": "uint256",
          "name": "",
          "type": "uint256"
        }
      ],
      "stateMutability": "view",
      "type": "function"
    },
    {
      "inputs": [],
      "name": "claimRewards",
      "outputs": [],
      "stateMutability": "nonpayable",
      "type": "function"
    },
    {
      "inputs": [
        {
          "internalType": "bytes32",
          "name": "",
          "type": "bytes32"
        }
      ],
      "name": "files",
      "outputs": [
        {
          "internalType": "bytes32",
          "name": "merkleRoot",
          "type": "bytes32"
        },
        {
          "internalType": "uint256",
          "name": "size",
          "type": "uint256"
        },
        {
          "internalType": "uint256",
          "name": "timestamp",
          "type": "uint256"
        },
        {
          "internalType": "address",
          "name": "uploader",
          "type": "address"
        }
      ],
      "stateMutability": "view",
      "type": "function"
    },
    {
      "inputs": [
        {
          "internalType": "bytes32",
          "name": "fileId",
          "type": "bytes32"
        }
      ],
      "name": "getFileDetails",
      "outputs": [
        {
          "components": [
            {
              "internalType": "bytes32",
              "name": "merkleRoot",
              "type": "bytes32"
            },
            {
              "internalType": "uint256",
              "name": "size",
              "type": "uint256"
            },
            {
              "internalType": "uint256",
              "name": "timestamp",
              "type": "uint256"
            },
            {
              "internalType": "address",
              "name": "uploader",
              "type": "address"
            },
            {
              "internalType": "string[]",
              "name": "shardHashes",
              "type": "string[]"
            }
          ],
          "internalType": "struct FileStorage.FileData",
          "name": "",
          "type": "tuple"
        }
      ],
      "stateMutability": "view",
      "type": "function"
    },
    {
      "inputs": [
        {
          "internalType": "address",
          "name": "user",
          "type": "address"
        }
      ],
      "name": "getUserFiles",
      "outputs": [
        {
          "internalType": "bytes32[]",
          "name": "",
          "type": "bytes32[]"
        }
      ],
      "stateMutability": "view",
      "type": "function"
    },
    {
      "inputs": [
        {
          "internalType": "bytes32",
          "name": "fileId",
          "type": "bytes32"
        },
        {
          "internalType": "address",
          "name": "recipient",
          "type": "address"
        }
      ],
      "name": "shareFile",
      "outputs": [],
      "stateMutability": "nonpayable",
      "type": "function"
    },
    {
      "inputs": [
        {
          "internalType": "bytes32",
          "name": "merkleRoot",
          "type": "bytes32"
        },
        {
          "internalType": "uint256",
          "name": "size",
          "type": "uint256"
        },
        {
          "internalType": "string[]",
          "name": "shardHashes",
          "type": "string[]"
        }
      ],
      "name": "uploadFile",
      "outputs": [],
      "stateMutability": "nonpayable",
      "type": "function"
    },
    {
      "inputs": [
        {
          "internalType": "address",
          "name": "",
          "type": "address"
        },
        {
          "internalType": "uint256",
          "name": "",
          "type": "uint256"
        }
      ],
      "name": "userFiles",
      "outputs": [
        {
          "internalType": "bytes32",
          "name": "",
          "type": "bytes32"
        }
      ],
      "stateMutability": "view",
      "type": "function"
    },
    {
      "inputs": [
        {
          "internalType": "address",
          "name": "",
          "type": "address"
        }
      ],
      "name": "userRewards",
      "outputs": [
        {
          "internalType": "uint256",
          "name": "",
          "type": "uint256"
        }
      ],
      "stateMutability": "view",
      "type": "function"
    },
    {
      "inputs": [
        {
          "internalType": "bytes32",
          "name": "fileId",
          "type": "bytes32"
        },
        {
          "internalType": "bytes32[]",
          "name": "proof",
          "type": "bytes32[]"
        }
      ],
      "name": "verifyFile",
      "outputs": [],
      "stateMutability": "nonpayable",
      "type": "function"
    },
    {
      "stateMutability": "payable",
      "type": "receive"
    }
  ],
  "bytecode": "0x608060405234801561001057600080fd5b50612100806100206000396000f3fe6080604052600436106100ab5760003560e01c806350f28d031161006457806350f28d03146101c2578063565b6f40146101eb5780635b39515914610216578063718f38a61461025357806398c9adff146102905780639e690271146102d0576100b2565b80630660f1e8146100b457806310e51565146100f15780631fc379221461011a57806325c211dc14610157578063372500ab146101805780634f58968c14610197576100b2565b366100b257005b005b3480156100c057600080fd5b506100db60048036038101906100d69190610f8c565b6102fb565b6040516100e89190610fd2565b60405180910390f35b3480156100fd57600080fd5b5061011860048036038101906101139190611023565b610313565b005b34801561012657600080fd5b50610141600480360381019061013c9190610f8c565b6104c9565b60405161014e9190611121565b60405180910390f35b34801561016357600080fd5b5061017e6004803603810190610179919061139b565b610560565b005b34801561018c57600080fd5b50610195610800565b005b3480156101a357600080fd5b506101ac610964565b6040516101b99190610fd2565b60405180910390f35b3480156101ce57600080fd5b506101e960048036038101906101e491906114cd565b61096b565b005b3480156101f757600080fd5b50610200610ac1565b60405161020d9190610fd2565b60405180910390f35b34801561022257600080fd5b5061023d60048036038101906102389190611529565b610acc565b60405161024a919061172b565b60405180910390f35b34801561025f57600080fd5b5061027a6004803603810190610275919061174d565b610c9d565b604051610287919061179c565b60405180910390f35b34801561029c57600080fd5b506102b760048036038101906102b29190611529565b610cce565b6040516102c794939291906117c6565b60405180910390f35b3480156102dc57600080fd5b506102e5610d1e565b6040516102f29190610fd2565b60405180910390f35b60016020528060005260406000206000915090505481565b3373ffffffffffffffffffffffffffffffffffffffff1660008084815260200190815260200160002060030160009054906101000a900473ffffffffffffffffffffffffffffffffffffffff1673ffffffffffffffffffffffffffffffffffffffff16146103b6576040517f08c379a00000000000000000000000000000000000000000000000000000000081526004016103ad90611868565b60405180910390fd5b600073ffffffffffffffffffffffffffffffffffffffff168173ffffffffffffffffffffffffffffffffffffffff1603610425576040517f08c379a000000000000000000000000000000000000000000000000000000000815260040161041c906118d4565b60405180910390fd5b600260008273ffffffffffffffffffffffffffffffffffffffff1673ffffffffffffffffffffffffffffffffffffffff168152602001908152602001600020829080600181540180825580915050600190039060005260206000200160009091909190915055817f7eaae5561b99c52aa935c7718653858a2708e6422f302150625e40234db3a39133836040516104bd9291906118f4565b60405180910390a25050565b6060600260008373ffffffffffffffffffffffffffffffffffffffff1673ffffffffffffffffffffffffffffffffffffffff16815260200190815260200160002080548060200260200160405190810160405280929190818152602001828054801561055457602002820191906000526020600020905b815481526020019060010190808311610540575b50505050509050919050565b600082116105a3576040517f08c379a000000000000000000000000000000000000000000000000000000000815260040161059a90611969565b60405180910390fd5b60008151116105e7576040517f08c379a00000000000000000000000000000000000000000000000000000000081526004016105de906119d5565b60405180910390fd5b60008333426040516020016105fe93929190611a7f565b6040516020818303038152906040528051906020012090506040518060a001604052808581526020018481526020014281526020013373ffffffffffffffffffffffffffffffffffffffff1681526020018381525060008083815260200190815260200160002060008201518160000155602082015181600101556040820151816002015560608201518160030160006101000a81548173ffffffffffffffffffffffffffffffffffffffff021916908373ffffffffffffffffffffffffffffffffffffffff16021790555060808201518160040190805190602001906106e6929190610df8565b50905050600260003373ffffffffffffffffffffffffffffffffffffffff1673ffffffffffffffffffffffffffffffffffffffff168152602001908152602001600020819080600181540180825580915050600190039060005260206000200160009091909190915055600066038d7ea4c6800083516107669190611aeb565b905080600160003373ffffffffffffffffffffffffffffffffffffffff1673ffffffffffffffffffffffffffffffffffffffff16815260200190815260200160002060008282546107b79190611b2d565b92505081905550817fec5b0fb96b721769d24b11776516c6ace293db81d43459eca4486b56b6f91cb33385516040516107f1929190611b61565b60405180910390a25050505050565b6000600160003373ffffffffffffffffffffffffffffffffffffffff1673ffffffffffffffffffffffffffffffffffffffff16815260200190815260200160002054905060008111610887576040517f08c379a000000000000000000000000000000000000000000000000000000000815260040161087e90611bd6565b60405180910390fd5b6000600160003373ffffffffffffffffffffffffffffffffffffffff1673ffffffffffffffffffffffffffffffffffffffff168152602001908152602001600020819055503373ffffffffffffffffffffffffffffffffffffffff166108fc829081150290604051600060405180830381858888f19350505050158015610912573d6000803e3d6000fd5b503373ffffffffffffffffffffffffffffffffffffffff167fe2403640ba68fed3a2f88b7557551d1993f84b99bb10ff833f0cf8db0c5e0486826040516109599190610fd2565b60405180910390a250565b6210000081565b6000806000848152602001908152602001600020905060008160020154116109c8576040517f08c379a00000000000000000000000000000000000000000000000000000000081526004016109bf90611c42565b60405180910390fd5b6109d6828260000154610d23565b610a15576040517f08c379a0000000000000000000000000000000000000000000000000000000008152600401610a0c90611cae565b60405180910390fd5b6000600a66038d7ea4c68000610a2b9190611cfd565b905080600160003373ffffffffffffffffffffffffffffffffffffffff1673ffffffffffffffffffffffffffffffffffffffff1681526020019081526020016000206000828254610a7c9190611b2d565b92505081905550837f6fcb755b7288a61f09eb609abdbb64fa31e02ef0ccdb2d8e823e051fe4e6ada533604051610ab39190611d2e565b60405180910390a250505050565b66038d7ea4c6800081565b610ad4610e51565b60008060008481526020019081526020016000206002015411610b2c576040517f08c379a0000000000000000000000000000000000000000000000000000000008152600401610b2390611c42565b60405180910390fd5b6000808381526020019081526020016000206040518060a00160405290816000820154815260200160018201548152602001600282015481526020016003820160009054906101000a900473ffffffffffffffffffffffffffffffffffffffff1673ffffffffffffffffffffffffffffffffffffffff1673ffffffffffffffffffffffffffffffffffffffff16815260200160048201805480602002602001604051908101604052809291908181526020016000905b82821015610c8e578382906000526020600020018054610c0190611d78565b80601f0160208091040260200160405190810160405280929190818152602001828054610c2d90611d78565b8015610c7a5780601f10610c4f57610100808354040283529160200191610c7a565b820191906000526020600020905b815481529060010190602001808311610c5d57829003601f168201915b505050505081526020019060010190610be2565b50505050815250509050919050565b60026020528160005260406000208181548110610cb957600080fd5b90600052602060002001600091509150505481565b60006020528060005260406000206000915090508060000154908060010154908060020154908060030160009054906101000a900473ffffffffffffffffffffffffffffffffffffffff16905084565b600381565b60008083600081518110610d3a57610d39611da9565b5b602002602001015190506000600190505b8451811015610deb576000858281518110610d6957610d68611da9565b5b6020026020010151905080831015610dab578281604051602001610d8e929190611dd8565b604051602081830303815290604052805190602001209250610dd7565b8083604051602001610dbe929190611dd8565b6040516020818303038152906040528051906020012092505b508080610de390611e04565b915050610d4b565b5082811491505092915050565b828054828255906000526020600020908101928215610e40579160200282015b82811115610e3f578251829081610e2f9190611ff8565b5091602001919060010190610e18565b5b509050610e4d9190610e99565b5090565b6040518060a00160405280600080191681526020016000815260200160008152602001600073ffffffffffffffffffffffffffffffffffffffff168152602001606081525090565b5b80821115610eb95760008181610eb09190610ebd565b50600101610e9a565b5090565b508054610ec990611d78565b6000825580601f10610edb5750610efa565b601f016020900490600052602060002090810190610ef99190610efd565b5b50565b5b80821115610f16576000816000905550600101610efe565b5090565b6000604051905090565b600080fd5b600080fd5b600073ffffffffffffffffffffffffffffffffffffffff82169050919050565b6000610f5982610f2e565b9050919050565b610f6981610f4e565b8114610f7457600080fd5b50565b600081359050610f8681610f60565b92915050565b600060208284031215610fa257610fa1610f24565b5b6000610fb084828501610f77565b91505092915050565b6000819050919050565b610fcc81610fb9565b82525050565b6000602082019050610fe76000830184610fc3565b92915050565b6000819050919050565b61100081610fed565b811461100b57600080fd5b50565b60008135905061101d81610ff7565b92915050565b6000806040838503121561103a57611039610f24565b5b60006110488582860161100e565b925050602061105985828601610f77565b9150509250929050565b600081519050919050565b600082825260208201905092915050565b6000819050602082019050919050565b61109881610fed565b82525050565b60006110aa838361108f565b60208301905092915050565b6000602082019050919050565b60006110ce82611063565b6110d8818561106e565b93506110e38361107f565b8060005b838110156111145781516110fb888261109e565b9750611106836110b6565b9250506001810190506110e7565b5085935050505092915050565b6000602082019050818103600083015261113b81846110c3565b905092915050565b61114c81610fb9565b811461115757600080fd5b50565b60008135905061116981611143565b92915050565b600080fd5b6000601f19601f8301169050919050565b7f4e487b7100000000000000000000000000000000000000000000000000000000600052604160045260246000fd5b6111bd82611174565b810181811067ffffffffffffffff821117156111dc576111db611185565b5b80604052505050565b60006111ef610f1a565b90506111fb82826111b4565b919050565b600067ffffffffffffffff82111561121b5761121a611185565b5b602082029050602081019050919050565b600080fd5b600080fd5b600067ffffffffffffffff82111561125157611250611185565b5b61125a82611174565b9050602081019050919050565b82818337600083830152505050565b600061128961128484611236565b6111e5565b9050828152602081018484840111156112a5576112a4611231565b5b6112b0848285611267565b509392505050565b600082601f8301126112cd576112cc61116f565b5b81356112dd848260208601611276565b91505092915050565b60006112f96112f484611200565b6111e5565b9050808382526020820190506020840283018581111561131c5761131b61122c565b5b835b8181101561136357803567ffffffffffffffff8111156113415761134061116f565b5b80860161134e89826112b8565b8552602085019450505060208101905061131e565b5050509392505050565b600082601f8301126113825761138161116f565b5b81356113928482602086016112e6565b91505092915050565b6000806000606084860312156113b4576113b3610f24565b5b60006113c28682870161100e565b93505060206113d38682870161115a565b925050604084013567ffffffffffffffff8111156113f4576113f3610f29565b5b6114008682870161136d565b9150509250925092565b600067ffffffffffffffff82111561142557611424611185565b5b602082029050602081019050919050565b60006114496114448461140a565b6111e5565b9050808382526020820190506020840283018581111561146c5761146b61122c565b5b835b818110156114955780611481888261100e565b84526020840193505060208101905061146e565b5050509392505050565b600082601f8301126114b4576114b361116f565b5b81356114c4848260208601611436565b91505092915050565b600080604083850312156114e4576114e3610f24565b5b60006114f28582860161100e565b925050602083013567ffffffffffffffff81111561151357611512610f29565b5b61151f8582860161149f565b9150509250929050565b60006020828403121561153f5761153e610f24565b5b600061154d8482850161100e565b91505092915050565b61155f81610fb9565b82525050565b61156e81610f4e565b82525050565b600081519050919050565b600082825260208201905092915050565b6000819050602082019050919050565b600081519050919050565b600082825260208201905092915050565b60005b838110156115da5780820151818401526020810190506115bf565b60008484015250505050565b60006115f1826115a0565b6115fb81856115ab565b935061160b8185602086016115bc565b61161481611174565b840191505092915050565b600061162b83836115e6565b905092915050565b6000602082019050919050565b600061164b82611574565b611655818561157f565b93508360208202850161166785611590565b8060005b858110156116a35784840389528151611684858261161f565b945061168f83611633565b925060208a0199505060018101905061166b565b50829750879550505050505092915050565b600060a0830160008301516116cd600086018261108f565b5060208301516116e06020860182611556565b5060408301516116f36040860182611556565b5060608301516117066060860182611565565b506080830151848203608086015261171e8282611640565b9150508091505092915050565b6000602082019050818103600083015261174581846116b5565b905092915050565b6000806040838503121561176457611763610f24565b5b600061177285828601610f77565b92505060206117838582860161115a565b9150509250929050565b61179681610fed565b82525050565b60006020820190506117b1600083018461178d565b92915050565b6117c081610f4e565b82525050565b60006080820190506117db600083018761178d565b6117e86020830186610fc3565b6117f56040830185610fc3565b61180260608301846117b7565b95945050505050565b600082825260208201905092915050565b7f4e6f742066696c65206f776e6572000000000000000000000000000000000000600082015250565b6000611852600e8361180b565b915061185d8261181c565b602082019050919050565b6000602082019050818103600083015261188181611845565b9050919050565b7f496e76616c696420726563697069656e74000000000000000000000000000000600082015250565b60006118be60118361180b565b91506118c982611888565b602082019050919050565b600060208201905081810360008301526118ed816118b1565b9050919050565b600060408201905061190960008301856117b7565b61191660208301846117b7565b9392505050565b7f46696c652073697a65206d75737420626520706f736974697665000000000000600082015250565b6000611953601a8361180b565b915061195e8261191d565b602082019050919050565b6000602082019050818103600083015261198281611946565b9050919050565b7f4d7573742068617665206174206c65617374206f6e6520736861726400000000600082015250565b60006119bf601c8361180b565b91506119ca82611989565b602082019050919050565b600060208201905081810360008301526119ee816119b2565b9050919050565b6000819050919050565b611a10611a0b82610fed565b6119f5565b82525050565b60008160601b9050919050565b6000611a2e82611a16565b9050919050565b6000611a4082611a23565b9050919050565b611a58611a5382610f4e565b611a35565b82525050565b6000819050919050565b611a79611a7482610fb9565b611a5e565b82525050565b6000611a8b82866119ff565b602082019150611a9b8285611a47565b601482019150611aab8284611a68565b602082019150819050949350505050565b7f4e487b7100000000000000000000000000000000000000000000000000000000600052601160045260246000fd5b6000611af682610fb9565b9150611b0183610fb9565b9250828202611b0f81610fb9565b91508282048414831517611b2657611b25611abc565b5b5092915050565b6000611b3882610fb9565b9150611b4383610fb9565b9250828201905080821115611b5b57611b5a611abc565b5b92915050565b6000604082019050611b7660008301856117b7565b611b836020830184610fc3565b9392505050565b7f4e6f207265776172647320746f20636c61696d00000000000000000000000000600082015250565b6000611bc060138361180b565b9150611bcb82611b8a565b602082019050919050565b60006020820190508181036000830152611bef81611bb3565b9050919050565b7f46696c6520646f6573206e6f7420657869737400000000000000000000000000600082015250565b6000611c2c60138361180b565b9150611c3782611bf6565b602082019050919050565b60006020820190508181036000830152611c5b81611c1f565b9050919050565b7f496e76616c6964206d65726b6c652070726f6f66000000000000000000000000600082015250565b6000611c9860148361180b565b9150611ca382611c62565b602082019050919050565b60006020820190508181036000830152611cc781611c8b565b9050919050565b7f4e487b7100000000000000000000000000000000000000000000000000000000600052601260045260246000fd5b6000611d0882610fb9565b9150611d1383610fb9565b925082611d2357611d22611cce565b5b828204905092915050565b6000602082019050611d4360008301846117b7565b92915050565b7f4e487b7100000000000000000000000000000000000000000000000000000000600052602260045260246000fd5b60006002820490506001821680611d9057607f821691505b602082108103611da357611da2611d49565b5b50919050565b7f4e487b7100000000000000000000000000000000000000000000000000000000600052603260045260246000fd5b6000611de482856119ff565b602082019150611df482846119ff565b6020820191508190509392505050565b6000611e0f82610fb9565b91507fffffffffffffffffffffffffffffffffffffffffffffffffffffffffffffffff8203611e4157611e40611abc565b5b600182019050919050565b60008190508160005260206000209050919050565b60006020601f8301049050919050565b600082821b905092915050565b600060088302611eae7fffffffffffffffffffffffffffffffffffffffffffffffffffffffffffffffff82611e71565b611eb88683611e71565b95508019841693508086168417925050509392505050565b6000819050919050565b6000611ef5611ef0611eeb84610fb9565b611ed0565b610fb9565b9050919050565b6000819050919050565b611f0f83611eda565b611f23611f1b82611efc565b848454611e7e565b825550505050565b600090565b611f38611f2b565b611f43818484611f06565b505050565b5b81811015611f6757611f5c600082611f30565b600181019050611f49565b5050565b601f821115611fac57611f7d81611e4c565b611f8684611e61565b81016020851015611f95578190505b611fa9611fa185611e61565b830182611f48565b50505b505050565b600082821c905092915050565b6000611fcf60001984600802611fb1565b1980831691505092915050565b6000611fe88383611fbe565b9150826002028217905092915050565b612001826115a0565b67ffffffffffffffff81111561201a57612019611185565b5b6120248254611d78565b61202f828285611f6b565b600060209050601f8311600181146120625760008415612050578287015190505b61205a8582611fdc565b8655506120c2565b601f19841661207086611e4c565b60005b8281101561209857848901518255600182019150602085019450602081019050612073565b868310156120b557848901516120b1601f891682611fbe565b8355505b6001600288020188555050505b50505050505056fea26469706673582212208e5fe55d7ae2b6db87b216d5c80396c9ad5bc774dc6c9f626c59a78bacd3f11e64736f6c63430008140033",
  "linkReferences": {},
  "deployedLinkReferences": {}
}