{
  "_format": "hh-sol-artifact-1",
  "contractName": "FileStorage",
  "sourceName": "contracts/FileStorage.sol",
  "abi": [
    {
      "anonymous": false,
      "inputs": [
        {
          "indexed": true,
          "internalType": "bytes32",
          "name": "fileId",
          "type": "bytes32"
        },
        {
          "indexed": false,
          "internalType": "address",
          "name": "from",
          "type": "address"
        },
        {
          "indexed": false,
          "internalType": "address",
          "name": "to",
          "type": "address"
        }
      ],
      "name": "FileShared",
      "type": "event"
    },
    {
      "anonymous": false,
      "inputs": [
        {
          "indexed": true,
          "internalType": "bytes32",
          "name": "fileId",
          "type": "bytes32"
        },
        {
          "indexed": false,
          "internalType": "address",
          "name": "uploader",
          "type": "address"
        },
        {
          "indexed": false,
          "internalType": "uint256",
          "name": "shards",
          "type": "uint256"
        }
      ],
      "name": "FileUploaded",
      "type": "event"
    },
    {
      "anonymous": false,
      "inputs": [
        {
          "indexed": true,
          "internalType": "bytes32",
          "name": "fileId",
          "type": "bytes32"
        },
        {
          "indexed": false,
          "internalType": "address",
          "name": "verifier",
          "type": "address"
        }
      ],
      "name": "FileVerified",
      "type": "event"
    },
    {
      "anonymous": false,
      "inputs": [
        {
          "indexed": true,
          "internalType": "address",
          "name": "recipient",
          "type": "address"
        },
        {
          "indexed": false,
          "internalType": "uint256",
          "name": "amount",
          "type": "uint256"
        }
      ],
      "name": "RewardPaid",
      "type": "event"
    },
    {
      "stateMutability": "payable",
      "type": "fallback"
    },
    {
      "inputs": [],
      "name": "MIN_NODES",
      "outputs": [
        {
          "internalType": "uint256",
          "name": "",
          "type": "uint256"
        }
      ],
      "stateMutability": "view",
      "type": "function"
    },
    {
      "inputs": [],
      "name": "REWARD_PER_SHARD",
      "outputs": [
        {
          "internalType": "uint256",
          "name": "",
          "type": "uint256"
        }
      ],
      "stateMutability": "view",
      "type": "function"
    },
    {
      "inputs": [],
      "name": "SHARD_SIZE",
      "outputs": [
        {
          "internalType": "uint256",
          "name": "",
          "type": "uint256"
        }
      ],
      "stateMutability": "view",
      "type": "function"
    },
    {
      "inputs": [],
      "name": "claimRewards",
      "outputs": [],
      "stateMutability": "nonpayable",
      "type": "function"
    },
    {
      "inputs": [
        {
          "internalType": "bytes32",
          "name": "",
          "type": "bytes32"
        }
      ],
      "name": "files",
      "outputs": [
        {
          "internalType": "bytes32",
          "name": "merkleRoot",
          "type": "bytes32"
        },
        {
          "internalType": "uint256",
          "name": "size",
          "type": "uint256"
        },
        {
          "internalType": "uint256",
          "name": "timestamp",
          "type": "uint256"
        },
        {
          "internalType": "address",
          "name": "uploader",
          "type": "address"
        }
      ],
      "stateMutability": "view",
      "type": "function"
    },
    {
      "inputs": [
        {
          "internalType": "bytes32",
          "name": "fileId",
          "type": "bytes32"
        }
      ],
      "name": "getFileDetails",
      "outputs": [
        {
          "components": [
            {
              "internalType": "bytes32",
              "name": "merkleRoot",
              "type": "bytes32"
            },
            {
              "internalType": "uint256",
              "name": "size",
              "type": "uint256"
            },
            {
              "internalType": "uint256",
              "name": "timestamp",
              "type": "uint256"
            },
            {
              "internalType": "address",
              "name": "uploader",
              "type": "address"
            },
            {
              "internalType": "string[]",
              "name": "shardHashes",
              "type": "string[]"
            }
          ],
          "internalType": "struct FileStorage.FileData",
          "name": "",
          "type": "tuple"
        }
      ],
      "stateMutability": "view",
      "type": "function"
    },
    {
      "inputs": [
        {
          "internalType": "address",
          "name": "user",
          "type": "address"
        }
      ],
      "name": "getUserFiles",
      "outputs": [
        {
          "internalType": "bytes32[]",
          "name": "",
          "type": "bytes32[]"
        }
      ],
      "stateMutability": "view",
      "type": "function"
    },
    {
      "inputs": [
        {
          "internalType": "bytes32",
          "name": "fileId",
          "type": "bytes32"
        },
        {
          "internalType": "address",
          "name": "recipient",
          "type": "address"
        }
      ],
      "name": "shareFile",
      "outputs": [],
      "stateMutability": "nonpayable",
      "type": "function"
    },
    {
      "inputs": [
        {
          "internalType": "bytes32",
          "name": "merkleRoot",
          "type": "bytes32"
        },
        {
          "internalType": "uint256",
          "name": "size",
          "type": "uint256"
        },
        {
          "internalType": "string[]",
          "name": "shardHashes",
          "type": "string[]"
        }
      ],
      "name": "uploadFile",
      "outputs": [],
      "stateMutability": "nonpayable",
      "type": "function"
    },
    {
      "inputs": [
        {
          "internalType": "address",
          "name": "",
          "type": "address"
        },
        {
          "internalType": "uint256",
          "name": "",
          "type": "uint256"
        }
      ],
      "name": "userFiles",
      "outputs": [
        {
          "internalType": "bytes32",
          "name": "",
          "type": "bytes32"
        }
      ],
      "stateMutability": "view",
      "type": "function"
    },
    {
      "inputs": [
        {
          "internalType": "address",
          "name": "",
          "type": "address"
        }
      ],
      "name": "userRewards",
      "outputs": [
        {
          "internalType": "uint256",
          "name": "",
          "type": "uint256"
        }
      ],
      "stateMutability": "view",
      "type": "function"
    },
    {
      "inputs": [
        {
          "internalType": "bytes32",
          "name": "fileId",
          "type": "bytes32"
        },
        {
          "internalType": "bytes32[]",
          "name": "proof",
          "type": "bytes32[]"
        }
      ],
      "name": "verifyFile",
      "outputs": [],
      "stateMutability": "nonpayable",
      "type": "function"
    },
    {
      "stateMutability": "payable",
      "type": "receive"
    }
  ],
  "bytecode": "0x608060405234801561001057600080fd5b50612103806100206000396000f3fe6080604052600436106100ab5760003560e01c806350f28d031161006457806350f28d03146101c2578063565b6f40146101eb5780635b39515914610216578063718f38a61461025357806398c9adff146102905780639e690271146102d0576100b2565b80630660f1e8146100b457806310e51565146100f15780631fc379221461011a57806325c211dc14610157578063372500ab146101805780634f58968c14610197576100b2565b366100b257005b005b3480156100c057600080fd5b506100db60048036038101906100d69190610f8f565b6102fb565b6040516100e89190610fd5565b60405180910390f35b3480156100fd57600080fd5b5061011860048036038101906101139190611026565b610313565b005b34801561012657600080fd5b50610141600480360381019061013c9190610f8f565b6104c9565b60405161014e9190611124565b60405180910390f35b34801561016357600080fd5b5061017e6004803603810190610179919061139e565b610560565b005b34801561018c57600080fd5b50610195610801565b005b3480156101a357600080fd5b506101ac610965565b6040516101b99190610fd5565b60405180910390f35b3480156101ce57600080fd5b506101e960048036038101906101e491906114d0565b61096c565b005b3480156101f757600080fd5b50610200610ac3565b60405161020d9190610fd5565b60405180910390f35b34801561022257600080fd5b5061023d6004803603810190610238919061152c565b610acf565b60405161024a919061172e565b60405180910390f35b34801561025f57600080fd5b5061027a60048036038101906102759190611750565b610ca0565b604051610287919061179f565b60405180910390f35b34801561029c57600080fd5b506102b760048036038101906102b2919061152c565b610cd1565b6040516102c794939291906117c9565b60405180910390f35b3480156102dc57600080fd5b506102e5610d21565b6040516102f29190610fd5565b60405180910390f35b60016020528060005260406000206000915090505481565b3373ffffffffffffffffffffffffffffffffffffffff1660008084815260200190815260200160002060030160009054906101000a900473ffffffffffffffffffffffffffffffffffffffff1673ffffffffffffffffffffffffffffffffffffffff16146103b6576040517f08c379a00000000000000000000000000000000000000000000000000000000081526004016103ad9061186b565b60405180910390fd5b600073ffffffffffffffffffffffffffffffffffffffff168173ffffffffffffffffffffffffffffffffffffffff1603610425576040517f08c379a000000000000000000000000000000000000000000000000000000000815260040161041c906118d7565b60405180910390fd5b600260008273ffffffffffffffffffffffffffffffffffffffff1673ffffffffffffffffffffffffffffffffffffffff168152602001908152602001600020829080600181540180825580915050600190039060005260206000200160009091909190915055817f7eaae5561b99c52aa935c7718653858a2708e6422f302150625e40234db3a39133836040516104bd9291906118f7565b60405180910390a25050565b6060600260008373ffffffffffffffffffffffffffffffffffffffff1673ffffffffffffffffffffffffffffffffffffffff16815260200190815260200160002080548060200260200160405190810160405280929190818152602001828054801561055457602002820191906000526020600020905b815481526020019060010190808311610540575b50505050509050919050565b600082116105a3576040517f08c379a000000000000000000000000000000000000000000000000000000000815260040161059a9061196c565b60405180910390fd5b60008151116105e7576040517f08c379a00000000000000000000000000000000000000000000000000000000081526004016105de906119d8565b60405180910390fd5b60008333426040516020016105fe93929190611a82565b6040516020818303038152906040528051906020012090506040518060a001604052808581526020018481526020014281526020013373ffffffffffffffffffffffffffffffffffffffff1681526020018381525060008083815260200190815260200160002060008201518160000155602082015181600101556040820151816002015560608201518160030160006101000a81548173ffffffffffffffffffffffffffffffffffffffff021916908373ffffffffffffffffffffffffffffffffffffffff16021790555060808201518160040190805190602001906106e6929190610dfb565b50905050600260003373ffffffffffffffffffffffffffffffffffffffff1673ffffffffffffffffffffffffffffffffffffffff1681526020019081526020016000208190806001815401808255809150506001900390600052602060002001600090919091909150556000670de0b6b3a764000083516107679190611aee565b905080600160003373ffffffffffffffffffffffffffffffffffffffff1673ffffffffffffffffffffffffffffffffffffffff16815260200190815260200160002060008282546107b89190611b30565b92505081905550817fec5b0fb96b721769d24b11776516c6ace293db81d43459eca4486b56b6f91cb33385516040516107f2929190611b64565b60405180910390a25050505050565b6000600160003373ffffffffffffffffffffffffffffffffffffffff1673ffffffffffffffffffffffffffffffffffffffff16815260200190815260200160002054905060008111610888576040517f08c379a000000000000000000000000000000000000000000000000000000000815260040161087f90611bd9565b60405180910390fd5b6000600160003373ffffffffffffffffffffffffffffffffffffffff1673ffffffffffffffffffffffffffffffffffffffff168152602001908152602001600020819055503373ffffffffffffffffffffffffffffffffffffffff166108fc829081150290604051600060405180830381858888f19350505050158015610913573d6000803e3d6000fd5b503373ffffffffffffffffffffffffffffffffffffffff167fe2403640ba68fed3a2f88b7557551d1993f84b99bb10ff833f0cf8db0c5e04868260405161095a9190610fd5565b60405180910390a250565b6201900081565b6000806000848152602001908152602001600020905060008160020154116109c9576040517f08c379a00000000000000000000000000000000000000000000000000000000081526004016109c090611c45565b60405180910390fd5b6109d7828260000154610d26565b610a16576040517f08c379a0000000000000000000000000000000000000000000000000000000008152600401610a0d90611cb1565b60405180910390fd5b6000600a670de0b6b3a7640000610a2d9190611d00565b905080600160003373ffffffffffffffffffffffffffffffffffffffff1673ffffffffffffffffffffffffffffffffffffffff1681526020019081526020016000206000828254610a7e9190611b30565b92505081905550837f6fcb755b7288a61f09eb609abdbb64fa31e02ef0ccdb2d8e823e051fe4e6ada533604051610ab59190611d31565b60405180910390a250505050565b670de0b6b3a764000081565b610ad7610e54565b60008060008481526020019081526020016000206002015411610b2f576040517f08c379a0000000000000000000000000000000000000000000000000000000008152600401610b2690611c45565b60405180910390fd5b6000808381526020019081526020016000206040518060a00160405290816000820154815260200160018201548152602001600282015481526020016003820160009054906101000a900473ffffffffffffffffffffffffffffffffffffffff1673ffffffffffffffffffffffffffffffffffffffff1673ffffffffffffffffffffffffffffffffffffffff16815260200160048201805480602002602001604051908101604052809291908181526020016000905b82821015610c91578382906000526020600020018054610c0490611d7b565b80601f0160208091040260200160405190810160405280929190818152602001828054610c3090611d7b565b8015610c7d5780601f10610c5257610100808354040283529160200191610c7d565b820191906000526020600020905b815481529060010190602001808311610c6057829003601f168201915b505050505081526020019060010190610be5565b50505050815250509050919050565b60026020528160005260406000208181548110610cbc57600080fd5b90600052602060002001600091509150505481565b60006020528060005260406000206000915090508060000154908060010154908060020154908060030160009054906101000a900473ffffffffffffffffffffffffffffffffffffffff16905084565b600381565b60008083600081518110610d3d57610d3c611dac565b5b602002602001015190506000600190505b8451811015610dee576000858281518110610d6c57610d6b611dac565b5b6020026020010151905080831015610dae578281604051602001610d91929190611ddb565b604051602081830303815290604052805190602001209250610dda565b8083604051602001610dc1929190611ddb565b6040516020818303038152906040528051906020012092505b508080610de690611e07565b915050610d4e565b5082811491505092915050565b828054828255906000526020600020908101928215610e43579160200282015b82811115610e42578251829081610e329190611ffb565b5091602001919060010190610e1b565b5b509050610e509190610e9c565b5090565b6040518060a00160405280600080191681526020016000815260200160008152602001600073ffffffffffffffffffffffffffffffffffffffff168152602001606081525090565b5b80821115610ebc5760008181610eb39190610ec0565b50600101610e9d565b5090565b508054610ecc90611d7b565b6000825580601f10610ede5750610efd565b601f016020900490600052602060002090810190610efc9190610f00565b5b50565b5b80821115610f19576000816000905550600101610f01565b5090565b6000604051905090565b600080fd5b600080fd5b600073ffffffffffffffffffffffffffffffffffffffff82169050919050565b6000610f5c82610f31565b9050919050565b610f6c81610f51565b8114610f7757600080fd5b50565b600081359050610f8981610f63565b92915050565b600060208284031215610fa557610fa4610f27565b5b6000610fb384828501610f7a565b91505092915050565b6000819050919050565b610fcf81610fbc565b82525050565b6000602082019050610fea6000830184610fc6565b92915050565b6000819050919050565b61100381610ff0565b811461100e57600080fd5b50565b60008135905061102081610ffa565b92915050565b6000806040838503121561103d5761103c610f27565b5b600061104b85828601611011565b925050602061105c85828601610f7a565b9150509250929050565b600081519050919050565b600082825260208201905092915050565b6000819050602082019050919050565b61109b81610ff0565b82525050565b60006110ad8383611092565b60208301905092915050565b6000602082019050919050565b60006110d182611066565b6110db8185611071565b93506110e683611082565b8060005b838110156111175781516110fe88826110a1565b9750611109836110b9565b9250506001810190506110ea565b5085935050505092915050565b6000602082019050818103600083015261113e81846110c6565b905092915050565b61114f81610fbc565b811461115a57600080fd5b50565b60008135905061116c81611146565b92915050565b600080fd5b6000601f19601f8301169050919050565b7f4e487b7100000000000000000000000000000000000000000000000000000000600052604160045260246000fd5b6111c082611177565b810181811067ffffffffffffffff821117156111df576111de611188565b5b80604052505050565b60006111f2610f1d565b90506111fe82826111b7565b919050565b600067ffffffffffffffff82111561121e5761121d611188565b5b602082029050602081019050919050565b600080fd5b600080fd5b600067ffffffffffffffff82111561125457611253611188565b5b61125d82611177565b9050602081019050919050565b82818337600083830152505050565b600061128c61128784611239565b6111e8565b9050828152602081018484840111156112a8576112a7611234565b5b6112b384828561126a565b509392505050565b600082601f8301126112d0576112cf611172565b5b81356112e0848260208601611279565b91505092915050565b60006112fc6112f784611203565b6111e8565b9050808382526020820190506020840283018581111561131f5761131e61122f565b5b835b8181101561136657803567ffffffffffffffff81111561134457611343611172565b5b80860161135189826112bb565b85526020850194505050602081019050611321565b5050509392505050565b600082601f83011261138557611384611172565b5b81356113958482602086016112e9565b91505092915050565b6000806000606084860312156113b7576113b6610f27565b5b60006113c586828701611011565b93505060206113d68682870161115d565b925050604084013567ffffffffffffffff8111156113f7576113f6610f2c565b5b61140386828701611370565b9150509250925092565b600067ffffffffffffffff82111561142857611427611188565b5b602082029050602081019050919050565b600061144c6114478461140d565b6111e8565b9050808382526020820190506020840283018581111561146f5761146e61122f565b5b835b8181101561149857806114848882611011565b845260208401935050602081019050611471565b5050509392505050565b600082601f8301126114b7576114b6611172565b5b81356114c7848260208601611439565b91505092915050565b600080604083850312156114e7576114e6610f27565b5b60006114f585828601611011565b925050602083013567ffffffffffffffff81111561151657611515610f2c565b5b611522858286016114a2565b9150509250929050565b60006020828403121561154257611541610f27565b5b600061155084828501611011565b91505092915050565b61156281610fbc565b82525050565b61157181610f51565b82525050565b600081519050919050565b600082825260208201905092915050565b6000819050602082019050919050565b600081519050919050565b600082825260208201905092915050565b60005b838110156115dd5780820151818401526020810190506115c2565b60008484015250505050565b60006115f4826115a3565b6115fe81856115ae565b935061160e8185602086016115bf565b61161781611177565b840191505092915050565b600061162e83836115e9565b905092915050565b6000602082019050919050565b600061164e82611577565b6116588185611582565b93508360208202850161166a85611593565b8060005b858110156116a657848403895281516116878582611622565b945061169283611636565b925060208a0199505060018101905061166e565b50829750879550505050505092915050565b600060a0830160008301516116d06000860182611092565b5060208301516116e36020860182611559565b5060408301516116f66040860182611559565b5060608301516117096060860182611568565b50608083015184820360808601526117218282611643565b9150508091505092915050565b6000602082019050818103600083015261174881846116b8565b905092915050565b6000806040838503121561176757611766610f27565b5b600061177585828601610f7a565b92505060206117868582860161115d565b9150509250929050565b61179981610ff0565b82525050565b60006020820190506117b46000830184611790565b92915050565b6117c381610f51565b82525050565b60006080820190506117de6000830187611790565b6117eb6020830186610fc6565b6117f86040830185610fc6565b61180560608301846117ba565b95945050505050565b600082825260208201905092915050565b7f4e6f742066696c65206f776e6572000000000000000000000000000000000000600082015250565b6000611855600e8361180e565b91506118608261181f565b602082019050919050565b6000602082019050818103600083015261188481611848565b9050919050565b7f496e76616c696420726563697069656e74000000000000000000000000000000600082015250565b60006118c160118361180e565b91506118cc8261188b565b602082019050919050565b600060208201905081810360008301526118f0816118b4565b9050919050565b600060408201905061190c60008301856117ba565b61191960208301846117ba565b9392505050565b7f46696c652073697a65206d75737420626520706f736974697665000000000000600082015250565b6000611956601a8361180e565b915061196182611920565b602082019050919050565b6000602082019050818103600083015261198581611949565b9050919050565b7f4d7573742068617665206174206c65617374206f6e6520736861726400000000600082015250565b60006119c2601c8361180e565b91506119cd8261198c565b602082019050919050565b600060208201905081810360008301526119f1816119b5565b9050919050565b6000819050919050565b611a13611a0e82610ff0565b6119f8565b82525050565b60008160601b9050919050565b6000611a3182611a19565b9050919050565b6000611a4382611a26565b9050919050565b611a5b611a5682610f51565b611a38565b82525050565b6000819050919050565b611a7c611a7782610fbc565b611a61565b82525050565b6000611a8e8286611a02565b602082019150611a9e8285611a4a565b601482019150611aae8284611a6b565b602082019150819050949350505050565b7f4e487b7100000000000000000000000000000000000000000000000000000000600052601160045260246000fd5b6000611af982610fbc565b9150611b0483610fbc565b9250828202611b1281610fbc565b91508282048414831517611b2957611b28611abf565b5b5092915050565b6000611b3b82610fbc565b9150611b4683610fbc565b9250828201905080821115611b5e57611b5d611abf565b5b92915050565b6000604082019050611b7960008301856117ba565b611b866020830184610fc6565b9392505050565b7f4e6f207265776172647320746f20636c61696d00000000000000000000000000600082015250565b6000611bc360138361180e565b9150611bce82611b8d565b602082019050919050565b60006020820190508181036000830152611bf281611bb6565b9050919050565b7f46696c6520646f6573206e6f7420657869737400000000000000000000000000600082015250565b6000611c2f60138361180e565b9150611c3a82611bf9565b602082019050919050565b60006020820190508181036000830152611c5e81611c22565b9050919050565b7f496e76616c6964206d65726b6c652070726f6f66000000000000000000000000600082015250565b6000611c9b60148361180e565b9150611ca682611c65565b602082019050919050565b60006020820190508181036000830152611cca81611c8e565b9050919050565b7f4e487b7100000000000000000000000000000000000000000000000000000000600052601260045260246000fd5b6000611d0b82610fbc565b9150611d1683610fbc565b925082611d2657611d25611cd1565b5b828204905092915050565b6000602082019050611d4660008301846117ba565b92915050565b7f4e487b7100000000000000000000000000000000000000000000000000000000600052602260045260246000fd5b60006002820490506001821680611d9357607f821691505b602082108103611da657611da5611d4c565b5b50919050565b7f4e487b7100000000000000000000000000000000000000000000000000000000600052603260045260246000fd5b6000611de78285611a02565b602082019150611df78284611a02565b6020820191508190509392505050565b6000611e1282610fbc565b91507fffffffffffffffffffffffffffffffffffffffffffffffffffffffffffffffff8203611e4457611e43611abf565b5b600182019050919050565b60008190508160005260206000209050919050565b60006020601f8301049050919050565b600082821b905092915050565b600060088302611eb17fffffffffffffffffffffffffffffffffffffffffffffffffffffffffffffffff82611e74565b611ebb8683611e74565b95508019841693508086168417925050509392505050565b6000819050919050565b6000611ef8611ef3611eee84610fbc565b611ed3565b610fbc565b9050919050565b6000819050919050565b611f1283611edd565b611f26611f1e82611eff565b848454611e81565b825550505050565b600090565b611f3b611f2e565b611f46818484611f09565b505050565b5b81811015611f6a57611f5f600082611f33565b600181019050611f4c565b5050565b601f821115611faf57611f8081611e4f565b611f8984611e64565b81016020851015611f98578190505b611fac611fa485611e64565b830182611f4b565b50505b505050565b600082821c905092915050565b6000611fd260001984600802611fb4565b1980831691505092915050565b6000611feb8383611fc1565b9150826002028217905092915050565b612004826115a3565b67ffffffffffffffff81111561201d5761201c611188565b5b6120278254611d7b565b612032828285611f6e565b600060209050601f8311600181146120655760008415612053578287015190505b61205d8582611fdf565b8655506120c5565b601f19841661207386611e4f565b60005b8281101561209b57848901518255600182019150602085019450602081019050612076565b868310156120b857848901516120b4601f891682611fc1565b8355505b6001600288020188555050505b50505050505056fea26469706673582212208bc5aca9220562f293a3192a448f3f73f7d9cac58a01f68251d25a255c38812664736f6c63430008140033",
  "linkReferences": {},
  "deployedLinkReferences": {}
}